:100000000C94C5020C94ED020C94ED020C94ED02DC
:100010000C94ED020C94ED020C94ED020C94ED02A4
:100020000C94ED020C94ED020C9427180C94961885
:100030000C94ED020C94ED020C94ED020C94ED0284
:100040000C94ED020C94ED020C94ED020C94ED0274
:100050000C94ED020C94ED020C94ED020C94DD175F
:100060000C94ED020C94EE1A0C94C81A0C94ED0248
:100070000C94ED020C94ED020C94ED020C94ED0244
:100080000C94ED020C94ED020C94ED020C94ED0234
:100090000C94201B0C94ED020C94ED020C94ED02D8
:1000A0000C94ED020C94ED020C94ED02436F6E740F
:1000B000656E742D547970653A206170706C696357
:1000C0006174696F6E2F6A736F6E00436F6E6E6539
:1000D0006374696F6E3A206B6565702D616C69762B
:1000E0006500582D41494F2D4B65793A20386330D2
:1000F0003339313436656564643464363561383398
:100100003333333334396362646162373400486FA8
:1001100073743A20696F2E61646166727569742E1A
:10012000636F6D0025642E25642E25642E256400E2
:1001300044617461207061636B65742073656E64E3
:10014000206572726F722028322900446174612028
:100150007061636B65742073656E64206572726F85
:1001600072202831290041542B43495053454E44B5
:100170003D25642C2575004661696C656420746FAB
:1001800020777269746520746F20736F636B657478
:100190000041542B434950434C4F53453D25640087
:1001A000446973636F6E6E656374696E67200041A6
:1001B000542B434950535441545553002B434950F9
:1001C0005354415455533A25642C000D0A0053549E
:1001D000415455533A0041542B43495053544154D0
:1001E000555300456E6420746167206E6F742066FD
:1001F0006F756E64004E6F2074616720666F756E58
:1002000064003E3E3E2054494D454F5554203E3EED
:100210003E00080B00020202000009040000010277
:10022000020000052400100105240101010424023C
:10023000060524060001070581031000400904019A
:1002400000020A00000007050202400000070583C3
:10025000024000000403090412010002EF02014001
:100260004123368000010102030141726475696E09
:100270006F204C4C430041726475696E6F204C6571
:100280006F6E6172646F000D0A0053444B207665F7
:100290007273696F6E3A0041542B474D52004154BE
:1002A0002B4357444843503D312C310041542B439C
:1002B000574155544F434F4E4E3D300041542B4310
:1002C000495044494E464F3D310041542B4349501B
:1002D0004D55583D310041542B43574D4F44453DFA
:1002E0003100415445300041542B52535400496E63
:1002F0006974696C697A6174696F6E207375636380
:1003000065737366756C202D005761726E696E6738
:100310003A20556E737570706F72746564206669EB
:10032000726D776172650043616E6E6F7420696EE5
:10033000697469616C697A6520455350206D6F64FA
:10034000756C6500415400496E697469616C697A25
:10035000696E6720455350206D6F64756C6500228F
:10036000002B43574A41503A220041542B43574AED
:1003700041503F0022002B43495041503A69703AA6
:10038000220041542B43495041503F0022003A5330
:10039000544149502C220041542B434946535200AA
:1003A0000D0A002C2D0041542B43574A41503F0069
:1003B00022003A5354414D41432C220041542B43D7
:1003C000494653520022002B4349505354413A6747
:1003D0006174657761793A220041542B4349505347
:1003E00054413F0022002B4349505354413A6E651B
:1003F000746D61736B3A220041542B43495053543E
:10040000413F0041542B435751415000070605041A
:100410000100080A0B0C0D09000000002400270051
:100420002A002D00300000000000250028002B00CD
:100430002E00310004040404040304050202020235
:10044000040302020202060606060606040402026D
:100450000204040408020110408040102040804043
:10046000800802040180402010020110801020400A
:1004700040200000000200090F0000030401000CEE
:10048000000000000000000000000000000000006C
:100490000054494D454F55543A0054616720434C30
:1004A0004F534544206E6F7420666F756E64004E26
:1004B0006F20736F636B657420617661696C616234
:1004C0006C650041542B43495053544152543D25CF
:1004D000642C22544350222C222573222C25750093
:1004E000436F6E6E656374696E6720746F0044615C
:1004F0007461207061636B65742073656E64206540
:1005000072726F7220283229004461746120706118
:10051000636B65742073656E64206572726F722000
:100520002831290041542B43495053454E443D2521
:10053000642C2575004661696C656420746F2077B2
:100540007269746520746F20736F636B6574004308
:100550006F6E6E656374656420746F004661696CCC
:10056000656420636F6E6E656374696E6720746F77
:100570000041542B43574A41505F4355523D222579
:1005800073222C2225732200721C11241FBECFEF70
:10059000DAE0DEBFCDBF16E0A0E0B1E0EEEEF6E5BA
:1005A00002C005900D92A430B107D9F728E0A4E06D
:1005B000B6E001C01D92AF36B207E1F712E0C5EC1C
:1005C000D2E004C02197FE010E946729C43CD107F4
:1005D000C9F70E94271D0C94752B0C940000809184
:1005E000330790913407DC01ED91FC910084F18593
:1005F000E02D09951816190664F48091330790913F
:100600003407DC01ED91FC910284F385E02D09951E
:10061000E6CF089508950895FC0180912507882369
:1006200011F13FB7F89482E08093E9002091F20045
:10063000822F90E01816190614F481E090E08823C8
:1006400039F0289844E6409324074091F100408314
:10065000222339F02091F200211103C02BE62093D0
:10066000E8003FBF08958FEF9FEF08952FB7F894EC
:1006700083E08093E9009091E800892F807295FFD4
:1006800004C09091F20080E4891B2FBF08958091EF
:100690001C0781110DC082E08093180784E08093CD
:1006A000190710921B0710921A0781E080931C070C
:1006B00088E197E00895282F30E0F901EE58FB4FCC
:1006C0009491F901ED5AFB4F84912C5C3B4FF90159
:1006D0002491222309F430C09923E9F091509F30EE
:1006E000D0F4E92FF0E0E958FC4F0C946729A503FA
:1006F000A90386039D03A1038B038B038B03AC0328
:10070000B203B603BA03C0038B03C4039091800005
:100710009F7790938000E22FF0E0EE0FFF1FEA5DDD
:10072000FB4FA591B4919FB7F894EC91611132C041
:1007300080958E238C939FBF0895909180009F7D1C
:10074000E8CF90918000977FE4CF94B59F7794BDD8
:10075000E2CF94B59F7DFBCF909190009F779093CF
:100760009000D9CF909190009F7DF9CF909190000B
:10077000977FF5CF9091C0009F779093C000CBCF2B
:100780009091C0009F7DF9CF9091C200977F909388
:10079000C200C1CF8E2BCECFCF93DF9390E0FC0170
:1007A000ED5AFB4F24918C5C9B4FFC018491882374
:1007B000D1F090E0880F991FFC01E85EFB4FA591F6
:1007C000B491FC01EA5DFB4FC591D49161110EC05B
:1007D0009FB7F8948C91E22FE0958E238C9328811B
:1007E000E223E8839FBFDF91CF9108958FB7F894FC
:1007F000EC91E22BEC938FBFF6CF8251E82FF0E023
:10080000E45FFB4FE49190917B008E2F880F880F5F
:1008100080729F7D892B80937B00E770E064E0937A
:100820007C0080917A00806480937A0080917A00C5
:1008300086FDFCCF809178009091790008953FB7B4
:10084000F8948091140790911507A0911607B09124
:10085000170726B5A89B05C02F3F19F00196A11DCB
:10086000B11D3FBFBA2FA92F982F8827BC01CD01FA
:10087000620F711D811D911D42E0660F771F881F59
:10088000991F4A95D1F708958F929F92AF92BF9288
:10089000CF92DF92EF92FF924B015C010E941F0406
:1008A0006B017C010E941F046C197D098E099F0950
:1008B000683E734081059105A8F321E0821A9108F2
:1008C000A108B10888EEC80E83E0D81EE11CF11C17
:1008D00081149104A104B10429F7FF90EF90DF90F7
:1008E000CF90BF90AF909F908F9008952FB7F894BE
:1008F0006091100770911107809112079091130772
:100900002FBF08954091B8065091B9062091B606C0
:100910003091B70642175307B4F49091E8009570F0
:10092000E1F39091E80092FD19C08093F10080916D
:10093000B8069091B90601968F739927892B19F4FF
:100940008EEF8093E8008091B8069091B9060196E9
:100950009093B9068093B80681E0089580E00895E9
:10096000DF92EF92FF920F931F93CF93DF93D82ED6
:100970008A01EB017B01E40EF51ECE15DF0559F06F
:10098000D7FE12C0FE0184910E948204219681113B
:10099000F4CF0FEF1FEFC801DF91CF911F910F919F
:1009A000FF90EF90DF9008958881EECF0F931F9313
:1009B000CF93DF931F92CDB7DEB782E0898342E405
:1009C00050E062E172E080E80E94B0040E944703B8
:1009D000DC0112960D911C910115110589F0D801C9
:1009E000ED91FC910280F381E02DBE016F5F7F4F9E
:1009F000C801099597FD04C0F80100851185ECCF69
:100A000089810F90DF91CF911F910F9108956150CF
:100A100030F02091F100FC0120830196F8CF289856
:100A200084E68093240708950F931F93CF93DF9359
:100A3000EC010E947604688779878A879B87E88122
:100A4000F9810484F585E02DCE01099597FF15C045
:100A50000E947604088519852A853B85601B710BE9
:100A6000820B930B0C811D812E813F8160177107D2
:100A70008207930720F38FEF9FEFDF91CF911F91B4
:100A80000F910895BF92CF92DF92EF92FF920F9352
:100A90001F93CF93DF938C01C8010E941405EC01D2
:100AA00097FD5DC0D801ED91FC910284F385E02DA6
:100AB0008D32910521F0C0970A9708F04AC0C12CE9
:100AC000D12C7601B12CC130D105D9F0CD32D10570
:100AD00009F442C0CE01C0970A9798F4AAE0B0E0AA
:100AE000A70196010E9416296E01DD0FEE08FF088E
:100AF000C60ED71EE81EF91EB0E3CB1AD108E108D6
:100B0000F108D801ED91FC910284F385E02DC80134
:100B10000995C8010E941405EC01C0970A9798F244
:100B2000C130D10581F2BB2041F0F094E094D09423
:100B3000C094C11CD11CE11CF11CC701B601DF919E
:100B4000CF911F910F91FF90EF90DF90CF90BF90CA
:100B50000895C8010995A0CFBB24B394D2CFC12C6E
:100B6000D12C7601EACFEF92FF920F931F93CF9390
:100B7000DF938C017B01D0E0C0E0F701EC0FFD1F9B
:100B80006491662361F0D801ED91FC910190F081B0
:100B9000E02DC8010995892B11F02196EECFCE01E9
:100BA000DF91CF911F910F91FF90EF900895AF9239
:100BB000BF92CF92DF92EF92FF920F931F93CF934A
:100BC000DF936C017B018B01040F151FEB015E01AC
:100BD000AE18BF08C017D10759F06991D601ED9141
:100BE000FC910190F081E02DC6010995892B79F7E0
:100BF000C501DF91CF911F910F91FF90EF90DF9092
:100C0000CF90BF90AF900895DC0190E030E020E0FD
:100C10008AE0FB014191BF01442311F150ED540FD3
:100C20005A3090F4829FF001839FF00D11249F01B0
:100C300020533109240F311D47FD3A952F3F3105CF
:100C400041F338F380E008954E32E1F79330D1F369
:100C5000FD01E90FF11D22839F5F30E020E0D9CF35
:100C6000933081F715962C9381E00895FC01538D04
:100C7000448D252F30E0842F90E0821B930B541776
:100C800010F0CF96089501970895FC01918D828D03
:100C9000981761F0A28DAE0FBF2FB11D5D968C919C
:100CA000928D9F5F9F73928F90E008958FEF9FEFDB
:100CB0000895FC01918D828D981731F0828DE80F97
:100CC000F11D858D90E008958FEF9FEF0895FC0151
:100CD000918D228D892F90E0805C9F4F821B91091E
:100CE0008F739927089585E397E00E94670621E0B6
:100CF000892B09F420E0822F089580E090E0892B71
:100D000029F00E94730681110C9400000895FC01E3
:100D1000A48DA80FB92FB11DA35ABF4F2C91848D5C
:100D200090E001968F739927848FA689B7892C93B9
:100D3000A089B1898C9182748C93938D848D981342
:100D400006C00288F389E02D80818F7D808308951D
:100D5000EF92FF920F931F93CF93DF93EC0181E00B
:100D6000888F9B8D8C8D981319C0E889F9898081B3
:100D700085FF14C09FB7F894EE89FF896083E889E6
:100D8000F9898081827480839FBF81E090E0DF9148
:100D9000CF911F910F91FF90EF900895F62E0B8D3C
:100DA00010E00F5F1F4F0F731127E02E8C8D8E11F7
:100DB0000CC00FB607FCFACFE889F989808185FF5E
:100DC000F5CFCE010E948706F1CFEB8DEC0FFD2F02
:100DD000F11DE35AFF4FF0829FB7F8940B8FEA8919
:100DE000FB8980818062CFCFCF93DF93EC01888D28
:100DF0008823B9F0AA89BB89E889F9898C9185FD96
:100E000003C0808186FD0DC00FB607FCF7CF8C9123
:100E100085FFF2CF808185FFEDCFCE010E9487064E
:100E2000E9CFDF91CF9108958F929F92AF92BF92B9
:100E3000CF92DF92EF92FF920F931F93CF93DF93A6
:100E40006C017B018A0180910B01882309F45CC04D
:100E500080912507882309F457C08091BC0680FF44
:100E600005C08091E00082608093E000E801B12C31
:100E70008AEFA82E93E0892E2AE3922E209711F470
:100E8000BB20D9F10E94360381110AC0AA94AA207E
:100E9000D9F161E070E080E090E00E944404EECF80
:100EA0008C171D0611F00CF08C2F9FB7F8948092D0
:100EB000E9002091E80025FD02C09FBFDFCF282F69
:100EC00030E0C21BD30BF701815020F041914093D9
:100ED000F100FACFE20EF31EBB2021F09092E80061
:100EE000B12CEBCF8091E80085FDE7CF9092E80030
:100EF000BB24B394209709F3F3CF5D9884E68093E5
:100F0000BB06101611063CF081E090E0F6019383D9
:100F1000828310E000E0C801DF91CF911F910F9113
:100F2000FF90EF90DF90CF90BF90AF909F908F9009
:100F30000895CF93DF931F92CDB7DEB76983DC01AD
:100F4000ED91FC910280F381E02D41E050E0BE0183
:100F50006F5F7F4F09950F90DF91CF91089583E0E8
:100F60008093E9008091F200882319F08AE380934E
:100F7000E80008950E94360390E00895CF93DF9330
:100F80001F92CDB7DEB7FC018485958597FD08C01B
:100F90002FEF3FEF358724870F90DF91CF91089592
:100FA000CE0101960E940C03019719F4898190E00B
:100FB000F3CF8FEF9FEFF0CF0F931F93CF93DF937C
:100FC0001F92CDB7DEB78C01FC018485958597FF14
:100FD0000BC0CE0101960E940C03019771F4898128
:100FE00090E0F80195878487F801848595850F90B6
:100FF000DF91CF911F910F9108958FEF9FEFF1CF68
:10100000FC018485958597FD0BC09FB7F89482E01D
:101010008093E9008091F2009FBF90E001960895CF
:101020009FB7F89482E08093E9008091F2009FBF1F
:1010300090E008958F929F92AF92BF92CF92DF92ED
:10104000EF92FF920F931F93CF93DF934091270767
:10105000509128076091290770912A0714161506E8
:101060001606170644F490912607981709F417C13D
:10107000992309F414C1F82E809133079091340715
:10108000DC01ED91FC910084F185E02D0995892B1F
:1010900019F450E040E003C1009133071091340788
:1010A000D0E0C0E00E947604F801608771878287F3
:1010B0009387D801ED91FC910284F385E02DC8015E
:1010C000099597FF47C00E947604F80180849184B7
:1010D000A284B384681979098A099B098480958060
:1010E000A680B780681579058A059B0510F3D1CFD6
:1010F000C1E0D0E0D7CF4F0147E951E0209791F20E
:10110000BE012197D4012E914D01022E000C330B0C
:101110008217930729F0209729F24F5F5F4FF0CF96
:10112000209731F36A01BFEFCB1ADB0AA7E9B1E0E0
:1011300030E020E0BD90F601E1906F01BE1005C0E7
:101140002F5F3F4F2C173D07A8F3C217D30729F78E
:10115000EB01A8CFFE01E956FE4F2081022E000CC4
:10116000330B8217930739F62196C530D10509F064
:1011700099CF80913307909134070E944205609384
:1011800026078091330790913407DC01ED91FC91A3
:101190000284F385E02D09958091330790913407FF
:1011A0000E944205609327077093280780932907C0
:1011B00090932A078091330790913407DC01ED91D9
:1011C000FC910284F385E02D09958091330790917D
:1011D00034070E9442058091330790913407DC0167
:1011E000ED91FC910284F385E02D09958091330700
:1011F000909134070E944205809133079091340703
:10120000DC01ED91FC910284F385E02D099580913C
:101210003307909134070E944205809133079091E3
:101220003407DC01ED91FC910284F385E02D0995F2
:1012300080913307909134070E94420580913307D3
:1012400090913407DC01ED91FC910284F385E02D4F
:1012500009958091330790913407DC01ED91FC9161
:101260000284F385E02D099580913307909134072E
:101270000E9442058091330790913407DC01ED9183
:10128000FC910284F385E02D099580912607F816DC
:1012900011F0F110FECE4091270750912807CA01A6
:1012A000DF91CF911F910F91FF90EF90DF90CF9042
:1012B000BF90AF909F908F90089521E0FC018485AE
:1012C0008F3F09F420E0822F0895CF93DF93EC0144
:1012D000E881F9810084F185E02DCE010995892B03
:1012E00041F0E881F9810284F385E02DCE01099572
:1012F000EFCFDF91CF9108958F929F92AF92BF92DF
:10130000EF92FF920F931F93CF93DF93EC017B013A
:101310008A01E881F9810084F185E02D0995892B06
:1013200069F48FEF9FEFDF91CF911F910F91FF90A5
:10133000EF90BF90AF909F908F9008959C85809183
:101340002607981336C08091270790912807A0910F
:101350002907B0912A07A80170E060E0841795077B
:10136000A607B7070CF48C01E701E00EF11EEC169E
:10137000FD06E9F00E9476044B015C018091330781
:1013800090913407DC01ED91FC910284F385E02D0E
:10139000099597FF11C00E947604681979098A0996
:1013A0009B09683E73408105910540F3BACFC8019F
:1013B000BACF80E090E0B7CF8993809127079091D2
:1013C0002807A0912907B0912A070197A109B1091F
:1013D0008093270790932807A0932907B0932A07A3
:1013E000C6CFFC0184858F3F21F00E941A0897FF29
:1013F00002C090E080E00895CF93DF931F92CDB7B5
:10140000DEB76983DC01ED91FC910280F381E02D70
:1014100041E050E0BE016F5F7F4F09950F90DF9173
:10142000CF91089520914506260F3327331F21328F
:101430003105ECF420918E06FC0190E080E0243030
:1014400069F082E00895A09145062191AC014B5DC1
:10145000594FA40FB52FB11D2C930196861798F301
:1014600080914506680F6093450680E0089581E00D
:10147000089510928E0681E080938D061092680682
:1014800061E082E00E945B0361E083E00E945B0315
:10149000E9EBF0E080818E7F808380818D7F808387
:1014A00088E48093B80085E48093BC00089510928E
:1014B0003207109231071092300710922F070E94C6
:1014C000390A8AE093E090932E0780932D078BE0F2
:1014D00093E090932C0780932B070895CF93DF938D
:1014E00091E0909324068823B9F0C091B800D09180
:1014F000BA008091BC008A7B8093BC0060E082E0EF
:101500000E945B0360E083E00E945B030E94390A53
:10151000D093BA00C093B800DF91CF910895CF92D5
:10152000DF92EF92FF920F931F93CF93DF93EC0123
:101530008B81882309F479C0C88181E08093940667
:10154000C093B5061092300710922F070E941F0417
:101550006B017C0180918E06811179C082E08093BD
:101560008E0681E080938D068FEF80938C0610921B
:101570008B0610928A061092690680916906CC0F3C
:10158000C82BC093690680916806813009F090C02D
:10159000109268060E941F046B017C01809169060D
:1015A0008093BB008091900690919106A091920645
:1015B000B0919306892B8A2B8B2BA1F00E941F04DC
:1015C0000091900610919106209192063091930619
:1015D0006C197D098E099F09061717072807390717
:1015E00008F456C08091BC0083FDD8CF85EC809371
:1015F000BC000E941F046B017C0180918E0682302A
:1016000009F458C080918C0690E08F3F09F445C0E2
:1016100080918C0692E0803209F43FC080918C0664
:1016200094E08033D1F593E038C00E94570A81E0FE
:101630008B83CE010E948F0A81117ECFDF91CF91E3
:101640001F910F91FF90EF90DF90CF9008958091C0
:10165000900690919106A0919206B0919306892BE5
:101660008A2B8B2B09F476CF0E941F0400919006E1
:101670001091910620919206309193066C197D0984
:101680008E099F09061717072807390708F062CF48
:1016900080918F060E946E0A95E01092300710929A
:1016A0002F071092940681E0992341F280E0C6CF83
:1016B00085EE9DCF8091900690919106A091920623
:1016C000B0919306892B8A2B8B2B09F496CF0E941D
:1016D0001F0400919006109191062091920630917E
:1016E00093066C197D098E099F09061717072807AD
:1016F000390708F082CFCCCF0895E091320780916E
:101700003107E81730F4F0E0EC5FF94F808190E0AA
:1017100008958FEF9FEF08959091320780913107E0
:101720002FEF3FEF981748F4E92FF0E0EC5FF94F07
:10173000208130E09F5F90933207C9010895809126
:10174000310790913207891B990B0895CF92DF9250
:10175000EF92FF920F931F93CF93DF937C01CB0106
:101760008A0120919406222389F0EB016B01C40EBB
:10177000D51ECC15DD0569F06991D701ED91FC917D
:101780000190F081E02DC7010995F3CF642F0E94ED
:10179000120AC801DF91CF911F910F91FF90EF9036
:1017A000DF90CF900895CF93DF931F92CDB7DEB730
:1017B0006983209194062223F9F020912F0720328B
:1017C00058F021E030E0FC013383228390E080E098
:1017D0000F90DF91CF91089580913007E82FF0E0CE
:1017E000EB56F94F998190838F5F809330078093F8
:1017F0002F0781E090E0ECCF61E0CE0101960E94DE
:10180000120AF7CF90E080E00895FC0101900020DB
:10181000E9F731979F01281B390BE0912808F091D7
:101820002908E21BF30B4091240850912508E41786
:10183000F50730F46091220870912308E60FF71F36
:10184000280F391F6091260870912708DC01821744
:10185000930758F40196BC91A081BA1308C0319641
:10186000E617F70799F7FA01F1CF81E0089580E0D4
:101870000895FB0101900020E9F73197AF01461B65
:10188000570BDC01ED91FC910280F381E02D09946E
:101890008F929F92AF92BF92EF92FF920F931F93FE
:1018A000CF93DF93CDB7DEB7A1970FB6F894DEBF25
:1018B0000FBECDBF7C01FA01CB0119A2223008F482
:1018C0002AE08E010F5D1F4F822E912CB12CA12C8E
:1018D000BF01A50194010E94D528F901CA016A300F
:1018E0000CF5605DD8016E938D01232B242B252BE5
:1018F00079F790E080E0109721F0BD01C7010E94C8
:10190000390CA1960FB6F894DEBF0FBECDBFDF91A4
:10191000CF911F910F91FF90EF90BF90AF909F904C
:101920008F900895695CDECFCF92DF92EF92FF92A5
:10193000CF93DF93AB01BC0177FF1DC06A017C012F
:101940006DE282ED97E00E949907EC01442755274C
:10195000BA014C195D096E097F092AE082ED97E012
:101960000E94480C8C0F9D1FDF91CF91FF90EF904C
:10197000DF90CF9008952AE082ED97E0DF91CF913C
:10198000FF90EF90DF90CF900C94480C8F929F9235
:10199000AF92BF92CF92DF92EF92FF920F931F937D
:1019A000CF93DF937C01EB016C0182E0C80ED11C68
:1019B0004701E5E08E0E911C10E000E0F601419138
:1019C0006F0150E070E060E02AE0CE010E94480C18
:1019D0005C01E881F9810190F081E02D6EE2CE0199
:1019E00009958A0D9B1D080F191FC814D90431F7DA
:1019F000F701458150E070E060E02AE0CE010E94EE
:101A0000480C800F911FDF91CF911F910F91FF9094
:101A1000EF90DF90CF90BF90AF909F908F90089500
:101A20006FEA71E00C94390CCF93DF9362ED77E0AD
:101A30000E94C60CEC0182ED97E00E94100D8C0F05
:101A40009D1FDF91CF9108950F931F93CF93DF9345
:101A5000EC01462F50E070E060E02AE00E94480C64
:101A60008C01CE010E94100D800F911FDF91CF914C
:101A70001F910F910895CF93DF93BC01990F880BAD
:101A8000990B0E94940CEC0182ED97E00E94100DDE
:101A90008C0F9D1FDF91CF9108950F931F93CF93CC
:101AA000DF938C01D0E0C0E06115710519F00E9450
:101AB000390CEC01C8010E94100D8C0F9D1FDF91A5
:101AC000CF911F910F9108950F931F93CF93DF93A1
:101AD000EC01FB014481558160817181E881F981CC
:101AE0000280F381E02D09958C01CE010E94100D3A
:101AF000800F911FDF91CF911F910F9108950F9348
:101B00001F93CF93DF93EC010E94B3058C01CE01AC
:101B10000E94100D800F911FDF91CF911F910F91A7
:101B200008950C94390C3F924F925F926F927F927E
:101B30008F929F92AF92BF92CF92DF92EF92FF92DD
:101B40000F931F93CF93DF936C012B01342E809161
:101B500024089091250890932908809328080E94D2
:101B600076044B015C0166246A94762C0D2C000CE3
:101B7000EE08FF080E947604681979098A099B0912
:101B80006C157D058E059F0508F05BC08FEF68160C
:101B9000780609F056C08091330790913407DC0134
:101BA000ED91FC910084F185E02D0995892B11F3CD
:101BB0008091330790913407DC01ED91FC91028410
:101BC000F385E02D0995E0912808F091290880839C
:101BD0008091280890912908019690932908809374
:101BE000280820912608309127088217930740F093
:101BF00080912408909125089093290880932808C3
:101C00004114510441F0C2010E94050C882319F0CF
:101C100085E0682E712C332009F4ACCF0AE111E085
:101C2000D0E0C0E0F801819191918F010E94050CF4
:101C3000811105C02196C530D105A1F79BCF3E018A
:101C400099CF0E947604681979098A099B096C1555
:101C50007D058E059F0560F06DE971E082ED97E0EE
:101C60000E94910D62E072E082ED97E00E947F0D8C
:101C7000C301DF91CF911F910F91FF90EF90DF9003
:101C8000CF90BF90AF909F908F907F906F905F901C
:101C90004F903F900895CF93DF93EC010E94EF02A5
:101CA000BE0180913307909134070E947F0D41E07F
:101CB00070E060E088EE93E0DF91CF910C94930D9B
:101CC000AF92BF92CF92DF92EF92FF920F931F934A
:101CD000CF93DF93B82EEB01A42E89010E947604E6
:101CE0006B017C018091330790913407DC01ED9109
:101CF000FC910084F185E02D0995892B09F47EC0C3
:101D00008091330790913407DC01ED91FC91AA207A
:101D1000E9F00484F585E02D0995888380912707F3
:101D200090912807A0912907B0912A07892B8A2B27
:101D30008B2B29F181E0DF91CF911F910F91FF90C3
:101D4000EF90DF90CF90BF90AF9008950284F3851D
:101D5000E02D099588838091270790912807A0910D
:101D60002907B0912A070197A109B1098093270794
:101D700090932807A0932907B0932A07CFCF65E057
:101D800070E080E090E00E944404809133079091DD
:101D90003407DC01ED91FC910084F185E02D09957B
:101DA000892B41F28091330790913407DC01ED914A
:101DB000FC910484F585E02D09952B2D30E0205D04
:101DC0003F4F8217930709F0B5CF40E068EA71E012
:101DD00084EF91E00E94930D059761F06DE971E049
:101DE00082ED97E00E94910D6AE974E082ED97E040
:101DF0000E947F0D81E0F80180839DCF0E947604D0
:101E00006C197D098E099F09603D77408105910518
:101E100008F468CF6DE971E082ED97E00E94910DC2
:101E200061E974E082ED97E00E94B30564EC71E033
:101E300082ED97E00E94910D60912707709128072D
:101E40008091290790912A070E94940C82ED97E0D7
:101E50000E94100D10922707109228071092290750
:101E600010922A0710922607188280E064CF0F9301
:101E70001F93CF93DF9300D0CDB7DEB78C01DC0189
:101E8000ED91FC910084F185E02D0995892B59F1A4
:101E90001A82F801848590912607891309C09E0152
:101EA0002E5F3F4F40E0BE016F5F7F4F0E94600E8C
:101EB0008A81882379F0D8011C96EC911C97F0E078
:101EC000EE0FFF1FE45FFE4F8FEF9FEF9183808344
:101ED0001C968C93898190E00F900F90DF91CF91A9
:101EE0001F910F9108958FEF9FEFF6CF0F931F93E0
:101EF000CF93DF9300D0CDB7DEB78C01DC01ED913D
:101F0000FC910084F185E02D0995892B59F11A8205
:101F1000F801848590912607891309C09E012E5FE0
:101F20003F4F41E0BE016F5F7F4F0E94600E8A818C
:101F3000882379F0D8011C96EC911C97F0E0EE0F05
:101F4000FF1FE45FFE4F8FEF9FEF918380831C960E
:101F50008C93898190E00F900F90DF91CF911F912A
:101F60000F9108958FEF9FEFF6CFAF92BF92CF9270
:101F7000DF92EF92FF920F931F93CF93DF93CDB732
:101F8000DEB764970FB6F894DEBF0FBECDBF7C01FD
:101F90005B018A01DC011C968C91843018F4411598
:101FA0005105C9F481E090E0F7019383828310E04A
:101FB00000E0C80164960FB6F894DEBF0FBECDBF37
:101FC000DF91CF911F910F91FF90EF90DF90CF9015
:101FD000BF90AF9008951F934F931F928F9386E603
:101FE00091E09F938F939E012F5F3F4F69013F9335
:101FF0002F930E94E525B601809133079091340715
:102000000E944D0D40E062EB71E088EE93E00E948B
:10201000930D0FB6F894DEBF0FBECDBF0597C9F183
:102020006DE971E082ED97E00E94910D6BE471E043
:1020300082ED97E00E947F0D81E090E0F7019383AD
:1020400082836DE971E082ED97E00E94910D67E770
:1020500071E082ED97E00E94B30564EC71E082EDDF
:1020600097E00E94910DD7011C966C9182ED97E04C
:102070000E94240D60EA7FE080E090E00E9444042A
:10208000D701ED91FC910488F589E02DC7010995F0
:102090008ECF8091330790913407DC01ED91FC9154
:1020A0000280F381E02DA801B501099541E070E0BF
:1020B00060E080ED97E00E94930D039709F479CFDB
:1020C0006DE971E082ED97E00E94910D60E371E0AF
:1020D000AFCFCF93DF93EC0188819981009711F006
:1020E0000E94092A198218821D821C821B821A8270
:1020F000DF91CF910895FC0180819181009711F0CB
:102100000C94092A08950F931F93CF93DF93EC014A
:1021100088819981009759F02A813B8126173707DA
:1021200030F081E0DF91CF911F910F9108958B01E5
:102130006F5F7F4F0E94922A009759F0998388839E
:102140001B830A832C813D81232B59F7FC011082CC
:10215000E8CF80E0E7CFEF92FF920F931F93CF93EA
:10216000DF936115710541F480E0DF91CF911F91FC
:102170000F91FF90EF90089541155105B1F07B014B
:10218000EC010C811D81040F151FB8010E94831002
:10219000882351F3288139818C819D81B701820F79
:1021A000931F0E945F2B1D830C8381E0DECFCF93B2
:1021B000DF93EC01FB0101900020E9F73197AF01BB
:1021C000461B570B0E94AB10811103C0CE010E9429
:1021D0006910CE01DF91CF910895EF92FF920F9396
:1021E0001F93CF93DF93EC017B018A01BA010E9418
:1021F000831081110BC0CE010E946910CE01DF91C6
:10220000CF911F910F91FF90EF9008951D830C8344
:10221000B701888199810E945F2BF0CFFB0101906B
:102220000020E9F73197AF01461B570B0C94ED10D6
:102230000F931F93CF93DF93CDB7DEB7A1970FB660
:10224000F894DEBF0FBECDBF8C01CB01BA01F801FF
:102250001182108213821282158214822AE0AE014A
:102260004F5F5F4F0E94A925BE016F5F7F4FC8017E
:102270000E940E11A1960FB6F894DEBF0FBECDBF1F
:10228000DF91CF911F910F910895FB01DC01119611
:102290001C921E9213961C921E92129715961C92D7
:1022A0001E9214978617970749F060817181611516
:1022B000710521F0448155810C94ED100895FC01C5
:1022C000118210821382128215821482FB01019006
:1022D0000020E9F73197AF01461B570B0C94ED1026
:1022E0004F925F926F927F928F929F92AF92BF9226
:1022F000CF92DF92EF92FF920F931F93CF93DF93D2
:10230000CDB7DEB760970FB6F894DEBF0FBECDBF76
:102310008C016A017B01CB01BA0128EE33E040E079
:1023200050E00E94D52829013A01C701B60120E6F4
:102330003AEE40E050E00E94D5282D873E874F8737
:10234000588BC701B60120E83EEE46E350E00E94FC
:10235000D52869017A018CE3882E912CA12CB12C0F
:10236000C301B201A50194010E94D5282B013C01B3
:102370006D857E858F859889A50194010E94D52859
:102380004B015C0161EB71E0C8010E945F11C11457
:10239000D104E104F10409F481C0B701A601CE0122
:1023A00001960E941811BE016F5F7F4FCE01079604
:1023B0000E94451164EB71E0CE0107960E94D71090
:1023C000FC014481558160817181C8010E94AB107C
:1023D000CE0107960E947B10CE0101960E947B10D1
:1023E000B501A401CE0101960E941811BE016F5FD4
:1023F0007F4FCE0107960E94451167EB71E0CE0139
:1024000007960E94D710FC0144815581608171813B
:10241000C8010E94AB10CE0107960E947B10CE012E
:1024200001960E947B10B301A201CE0101960E9489
:102430001811BE016F5F7F4FCE0107960E944511B4
:1024400061ED75E0CE0107960E94D710FC01448132
:10245000558160817181C8010E94AB10CE01079641
:102460000E947B10CE0101960E947B10C8016096ED
:102470000FB6F894DEBF0FBECDBFDF91CF911F9195
:102480000F91FF90EF90DF90CF90BF90AF909F9013
:102490008F907F906F905F904F900895811491047A
:1024A000A104B10409F09CCFBECFCF93DF93CDB789
:1024B000DEB7C85CD1090FB6F894DEBF0FBECDBF42
:1024C0009E012F523F4FC353DF4F48815981CD5C4E
:1024D000D04068EC70E0CE0101960E9408260E9470
:1024E000EF02BE016F5F7F4F8091330790913407F9
:1024F0000E944D0D41E070E060E0C153DF4F8881E4
:102500009981CF5CD0400E94930DC853DF4F0FB626
:10251000F894DEBF0FBECDBFDF91CF9108958BE25F
:1025200091E09F938F9387E391E09F938F938EE445
:102530008F9380E28F9381E795E09F938F930E9422
:1025400055122DB73EB7285F3F4F0FB6F8943EBFE8
:102550000FBE2DBF6DE971E0892BC1F482ED97E0CC
:102560000E94910D6FE475E082ED97E00E94B30543
:1025700064EC71E082ED97E00E94910D67E371E0F9
:1025800082ED97E00E944D0D81E0089582ED97E085
:102590000E94910D6CE575E082ED97E00E94B30515
:1025A00064EC71E082ED97E00E94910D67E371E0C9
:1025B00082ED97E00E944D0D68EE73E080E090E0C0
:1025C0000E9444040E94EF0280E00895EF92FF927F
:1025D0000F931F93CF93DF93EC01162F072FF42E49
:1025E000E52E6DE971E082ED97E00E94910D60EEBD
:1025F00074E082ED97E00E94B30564EC71E082ED37
:1026000097E00E94910D612F702F82ED97E00E945C
:102610004D0DECE0F1E083E090E0268137812F3F23
:102620003F4F31F0019732978F3F9807B1F78FEF07
:102630008C878F3F69F1EF92FF920F931F931F9248
:102640008F9383E18F9388E88F9383EC94E09F933B
:102650008F930E9455122DB73EB7265F3F4F0FB69E
:10266000F8943EBF0FBE2DBF892BF1F48C8590E00E
:10267000FC01EE0FFF1FE45FFE4F9183808381E03A
:1026800090E0DF91CF911F910F91FF90EF9008950F
:102690006DE971E082ED97E00E94910D6FEA74E0C0
:1026A00082ED97E00E947F0D90E080E0EACFCF922C
:1026B000DF92EF92FF920F931F93CF93DF93CDB7EB
:1026C000DEB760970FB6F894DEBF0FBECDBF7C01BA
:1026D000FB016A0185811F928F9384811F928F93E2
:1026E00083811F928F9382811F928F9384E291E066
:1026F0009F938F938E010F5F1F4F1F930F930E9425
:10270000E525A601B801C7010E94E6120FB6F894AC
:10271000DEBF0FBECDBF60960FB6F894DEBF0FBE12
:10272000CDBFDF91CF911F910F91FF90EF90DF9080
:10273000CF9008950C94E612CF93DF93FC0124858B
:102740002F3FB1F1EC016DE971E082ED97E00E945D
:10275000910D60EA71E082ED97E00E94B30564ECB0
:1027600071E082ED97E00E94910D6C8582ED97E01B
:102770000E94240D8C851F928F938FE08F9380EAA7
:102780008F9381E991E09F938F930E945512EC857E
:10279000F0E0EE0FFF1FE45FFE4F8FEF9FEF91839E
:1027A00080838C870F900F900F900F900F900F9059
:1027B000DF91CF910895CF92DF92EF92FF920F9326
:1027C0001F93CF93DF93CDB7DEB764970FB6F8941E
:1027D000DEBF0FBECDBF6C010E9461258C018091D0
:1027E0006008843018F401151105C1F481E090E00F
:1027F000909357088093560810E000E0C801649653
:102800000FB6F894DEBF0FBECDBFDF91CF911F9101
:102810000F91FF90EF90DF90CF90089598012E5F79
:102820003F4F3F932F931F928F9384E295E09F93A6
:102830008F939E012F5F3F4F79013F932F930E940B
:10284000E525B70180913307909134070E944D0D23
:1028500040E062EB71E088EE93E00E94930D0FB6CA
:10286000F894DEBF0FBECDBF059709F066C0F12C0E
:10287000E12C8091330790913407DC01ED91FC91BC
:10288000208131810E151F0551F0F601EE0DFF1D5F
:102890006491F9010995FFEFEF1AFF0AEACF6DE0A5
:1028A000F90109958091330790913407DC01ED918E
:1028B000FC910190F081E02D6AE0099541E070E023
:1028C00060E080ED97E00E94930D039709F496CFA6
:1028D0006DE971E082ED97E00E94910D6EEE74E07B
:1028E00082ED97E00E947F0D81E090E09093570881
:1028F000809356086DE971E082ED97E00E94910D9A
:1029000065E375E082ED97E00E94B30564EC71E049
:1029100082ED97E00E94910D6091600882ED97E052
:102920000E94240D60EA7FE080E090E00E94440471
:1029300084E598E00E949C135FCF6DE971E082ED21
:1029400097E00E94910D69E075E0CACFAF92BF9207
:10295000CF92DF92EF92FF920F931F93CF93DF936B
:102960005C016B017A01E90118820E94EF02B50156
:1029700080913307909134070E947F0D41E0B601AA
:1029800088EE93E00E94930D8530910509F058C0C0
:102990008091240890912508909329088093280815
:1029A00040912208509123084F5F5F4F70E060E034
:1029B0000E94582B41E0B70184EF91E00E94930DF3
:1029C000059781F5A80141505109F70101900020B8
:1029D000E9F73197EE19FF096091240870912508F5
:1029E0008091280890912908861B970B8E1B9F0BBE
:1029F0004817590708F0AC01CE010E94662B41E050
:102A000070E060E080ED97E00E94930D81E0DF913F
:102A1000CF911F910F91FF90EF90DF90CF90BF90DB
:102A2000AF9008956DE971E082ED97E00E94910DFD
:102A300063EE71E082ED97E00E947F0D80E0E7CFCA
:102A40000597E0F36DE971E082ED97E00E94910D4A
:102A500065EF71E0EFCF4F925F926F927F928F920E
:102A60009F92AF92BF92CF92DF92EF92FF920F931D
:102A70001F93CF93DF93CDB7DEB74C016B015A01A3
:102A800039014DB65EB6CB010E94612501962DB786
:102A90003EB7281B390B0FB6F8943EBF0FBE2DBFB3
:102AA0008DB79EB701967C01B6010E945A25C501DB
:102AB0000E94612501962DB73EB7281B390B0FB632
:102AC000F8943EBF0FBE2DBF8DB79EB701966C0127
:102AD000B5010E945A259301A601B701C4010E94C5
:102AE000A6140FB6F8945EBE0FBE4DBEDF91CF9117
:102AF0001F910F91FF90EF90DF90CF90BF90AF901C
:102B00009F908F907F906F905F904F9008950F935C
:102B10001F93CF93DF93CDB7DEB72A970FB6F89404
:102B2000DEBF0FBECDBF0AE010E09E012F5F3F4F1A
:102B30004BEC51E06EEC71E086ED91E00E942B15BC
:102B40008823C1F0CE0101960E9433259C012250BA
:102B500031092330310580F0059781F080E02A9615
:102B60000FB6F894DEBF0FBECDBFDF91CF911F919E
:102B70000F9108958FEFF3CF81E0F1CF83E0EFCF96
:102B8000CF92DF92EF92FF920F931F93CF93DF9339
:102B9000CDB7DEB76E970FB6F894DEBF0FBECDBFD0
:102BA000FC0184858F3FD1F17F010E941A08892B97
:102BB00021F5D7011C968C911F928F938CEB91E09D
:102BC0009F938F93FE0131966F01FF93EF930E94C5
:102BD000E5250AE010E09E012B5E3F4F4BE951E0F6
:102BE000B6018FEA91E00E94A6140F900F900F900B
:102BF0000F900F900F90882311F094E010C0D70130
:102C00001C96EC911C97F0E0EE0FFF1FE45FFE4F67
:102C10008FEF9FEF918380831C968C9390E081E0EF
:102C2000943009F080E06E960FB6F894DEBF0FBEC8
:102C3000CDBFDF91CF911F910F91FF90EF90DF906B
:102C4000CF90089585ED8093BC008091900690917F
:102C50009106A0919206B09193060796A11DB11D11
:102C600023E0B695A795979587952A95D1F720915A
:102C7000BC0024FD03C010928E060895409190067A
:102C8000509191066091920670919306452B462BC8
:102C9000472B69F30097A105B10541F02AE22A9577
:102CA000F1F700C00197A109B109E1CF80918F062A
:102CB0000C946E0AAF92BF92CF92DF92EF92FF9286
:102CC0000F931F93CF93DF93CDB7DEB7EA970FB67D
:102CD000F894DEBF0FBECDBF8C016B0184E598E098
:102CE0000E949C1380E1EDE9F2E0DE015396019031
:102CF0000D928A95E1F7C8010E943B0D1CA21BA210
:102D00001EA21DA218A61FA24AE0BE016F5F7F4F40
:102D1000C8010E949625BE016F5F7F4FCE0183964A
:102D20000E940E116AEB71E0CE0101960E945F11C4
:102D30004FA158A56BA17CA1CE0101960E94AB10BA
:102D4000811104C0CE0101960E94691066EC71E009
:102D5000CE0101960E94D710BC01CE018F960E9431
:102D60004511CE0101960E947B10CE0183960E94F0
:102D70007B1069EC71E082ED97E00E944D0D67EFEA
:102D800071E082ED97E00E94910DBE016D5E7F4F74
:102D900082ED97E00E944D0D60E072E082ED97E0D9
:102DA0000E94910DB60182ED97E00E94640D67E0EC
:102DB00072E082ED97E00E94910DEBA8FCA881E003
:102DC000E81AF108AA24A394B12CE114F10429F41F
:102DD000B12CA12CEE24E394F12C61EB71E0CE0137
:102DE000C5960E945F110BA91CA9A016B106D8F4C4
:102DF000E016F10608F48701EFA5F8A9E00FF11F2E
:102E0000F08010826FA578A96A0D7B1DCE01C59652
:102E100061157105B1F00E940E118FA598A9080FD8
:102E2000191FF801F082EDA9FEA9309769F090E230
:102E30008191882349F08A30D9F7DF0111979C935B
:102E4000F7CF0E946910E9CFBE016B5C7F4F82ED26
:102E500097E00E94640D40E550E0BE016D5E7F4F3B
:102E600084E598E00E949A13892B09F49FC066E1DB
:102E700072E082ED97E00E944D0D64E272E0CE01B7
:102E800001960E945F11F601448155816081718134
:102E9000CE0101960E94AB10811104C0CE010196B3
:102EA0000E94691060E472E0CE0101960E94D71082
:102EB000BC01CE0189960E944511CE0101960E9467
:102EC0007B10BE01675D7F4F84E598E00E94640D32
:102ED0008EE091E00E94DB1382EE90E00E94DB1313
:102EE0008BEC90E00E94DB138CEA90E00E94DB13F5
:102EF0006FE472E084E598E00E94910D8BA99CA993
:102F00001CA21BA21EA21DA218A61FA24AE0BE015F
:102F10006F5F7F4F0E94CB25BE016F5F7F4FCE0159
:102F200083960E940E11BE016D5D7F4F84E598E08F
:102F30000E94640DCE0183960E947B1084E598E088
:102F40000E94100DBE01615D7F4F84E598E00E94F4
:102F5000640D60E672E082ED97E00E944D0D0E94E4
:102F600076046093FF0670930007809301079093A7
:102F70000207CE0189960E947B10CE01C5960E9461
:102F80007B10CE018F960E947B10EA960FB6F894C4
:102F9000DEBF0FBECDBFDF91CF911F910F91FF908C
:102FA000EF90DF90CF90BF90AF9008956BE872E004
:102FB00082ED97E00E944D0DE0CF1F920F920FB669
:102FC0000F9211242F933F938F939F93AF93BF93AF
:102FD0008091100790911107A0911207B0911307EB
:102FE00030910F0723E0230F2D3758F50196A11DCF
:102FF000B11D20930F078093100790931107A093A2
:103000001207B09313078091140790911507A091B0
:103010001607B09117070196A11DB11D80931407E3
:1030200090931507A0931607B0931707BF91AF9120
:103030009F918F913F912F910F900FBE0F901F90F6
:10304000189526E8230F0296A11DB11DD2CF1F921D
:103050000F920FB60F9211248F939F938091E100EE
:103060009091E100937F9093E10083FF0FC0109255
:10307000E90091E09093EB001092EC0092E39093C2
:10308000ED001092250798E09093F00082FF22C097
:1030900093E09093E9009091F200992319F09AE35C
:1030A0009093E8009091BB06992341F09091BB0664
:1030B00091509093BB06911101C05D9A90912407A5
:1030C000992341F0909124079150909324079111F6
:1030D00001C0289A84FF18C08091E2008E7E816032
:1030E0008093E2008091E1008F7E8093E1008091E7
:1030F000BC068E7E80618093BC069F918F910F905D
:103100000FBE0F901F90189580FFF7CF8091E200BF
:103110008E7E80618093E2008091E1008E7E8093BC
:10312000E1008091BC068E7E8160E5CF1F920F92F8
:103130000FB60F921124CF92DF92EF92FF920F936E
:103140001F932F933F934F935F936F937F938F932F
:103150009F93AF93BF93EF93FF93CF93DF93CDB73D
:10316000DEB76C97DEBFCDBF1092E9008091E8001A
:1031700083FF25C068E0CE0145960E94070582EFD7
:103180008093E8008D8987FF39C09091E80090FF17
:10319000FCCF982F907609F034C19E894F89588DC5
:1031A0002F89F88C911131C0803861F58091BD066E
:1031B0008093F1001092F1008EEF8093E8006C96FE
:1031C0000FB6F894DEBF0FBECDBFDF91CF91FF9158
:1031D000EF91BF91AF919F918F917F916F915F918F
:1031E0004F913F912F911F910F91FF90EF90DF90A2
:1031F000CF900F900FBE0F901F9018959EEF909359
:10320000E800C7CF1092F100D5CF913059F4811169
:10321000D3CF4130510581F68091BD068D7F8093DB
:10322000BD06CACF933049F48111C6CF4130510554
:1032300019F68091BD068260F2CF953041F48091FD
:10324000E80080FFFCCF20682093E300B5CF9630E4
:1032500009F0A9C00B8D1C8D22E01092E90010929C
:10326000B9061092B806F2122EC01092B70610924C
:10327000B6060E94D6041F8299E09983FA8291E0F3
:103280009E8390EA98879AEF99872091B8063091AB
:10329000B906275F3F4F3C832B838D831092E90053
:1032A0001092B9061092B8061093B7060093B606AE
:1032B00049E050E0BE016F5F7F4F80E00E94B004A4
:1032C0000E94D60479CF1093B7060093B6060E94E9
:1032D0004703DC0112960D911C910115110509F4AB
:1032E00051C1D801ED91FC910480F581E02DBE0122
:1032F0006B5E7F4FC8010995009709F03EC1F80148
:1033000000851185EACFF3E0FF120EC08F89882374
:1033100009F440C0823061F440E860E186E792E061
:103320000E943F1C811148CF81E28093EB0047CF80
:10333000813029F440E86BE08AE692E0F1CF8330F7
:1033400099F70E944703DC011296ED90FC908E01E4
:103350000F5F1F4F6801E114F10479F0D701ED917F
:10336000FC910680F781E02DB801C7010995080F8F
:10337000111DF701E084F184EECFD8011C92F60113
:1033800001900020E9F73197BF016C197D0940E0F9
:10339000C601C6CF64E572E0FB01449150E080E8CD
:1033A0000E94B00409CF973009F4BECF983021F4C1
:1033B00081E08093F10000CF993009F0FDCE837059
:1033C00009F0B2CFE5E2F1E081E031E096E321914E
:1033D000222371F08093E9003093EB00DF01119715
:1033E0002C912093EC009093ED008F5F873079F75C
:1033F0008EE78093EA001092EA008F898093250778
:10340000DBCE8B8D9C8D1092E9001092B906109244
:10341000B8069093B7068093B606898D811192C045
:103420008E899D89913A49F4813209F07DCF47E038
:1034300050E064E071E080E0B3CF913209F074CFE6
:10344000833269F48F89988DB0E0A0E08093000109
:1034500090930101A0930201B0930301ADCE80329D
:1034600069F48091E80082FFFCCF67E084E091E09E
:103470000E9407058BEF8093E8009ECE823209F010
:103480009BCE8F8980930B01EEEFFFE7859194919E
:103490008B3F9C4D51F1E0E0F8E080910401909168
:1034A0000501A0910601B0910701803B9440A10560
:1034B000B105F1F480910B0180FD1AC0EE3F8AE066
:1034C000F80789F587E797E791838083809160000B
:1034D0008093BA0688E19BE00FB6F894A895809394
:1034E00060000FBE9093600067CEEEEFFAE0D5CF9C
:1034F000808191818737974709F05ECEA8958091AA
:1035000060008861809360008091BA0680936000BB
:10351000EE3F2AE0F20789F08091FE0A9091FF0ABF
:103520009183808349CE808191818737980751F2BA
:103530009093FF0A8093FE0AC5CF1092FF0A109263
:10354000FE0A3ACE0E944703DC0112960D911C91AF
:103550000115110509F4E8CED801ED91FC91019017
:10356000F081E02DBE016B5E7F4FC801099581118E
:1035700023CEF80100851185EBCF181619060CF43F
:103580001BCED2CEF1E0FF12BECE68E572E004CFD2
:103590001F920F920FB60F9211242F933F934F93C8
:1035A0005F936F937F938F939F93AF93BF93EF93AB
:1035B000FF9385E397E00E948706FF91EF91BF910B
:1035C000AF919F918F917F916F915F914F913F91BB
:1035D0002F910F900FBE0F901F9018951F920F9272
:1035E0000FB60F9211242F938F939F93EF93FF9316
:1035F000E0914507F09146078081E0914B07F091FB
:103600004C0782FD1BC0908180914E078F5F8F73A6
:1036100020914F07821741F0E0914E07F0E0EB5CFC
:10362000F84F958F80934E07FF91EF919F918F9167
:103630002F910F900FBE0F901F9018958081F4CF9F
:103640001F920F920FB60F9211242F933F934F9317
:103650005F936F937F938F939F93AF93BF93EF93FA
:10366000FF938091B900887F803609F44AC0F0F555
:10367000883209F4A7C018F5803109F49BC0B8F46A
:10368000882309F4F9C0883009F494C0FF91EF91C0
:10369000BF91AF919F918F917F916F915F914F916A
:1036A0003F912F910F900FBE0F901F90189588316A
:1036B00009F488C0803251F780938C0614C080349E
:1036C00009F49DC040F48033B9F38833F9F6809350
:1036D0008C0685ECB0C0803509F485C0883509F4C6
:1036E00096C0883499F60E942216D0CF883909F402
:1036F0008CC038F5883729F050F4883611F08037BF
:1037000029F683E080938E061092670657C08838AA
:1037100009F47BC0803919F0803809F0B7CF809167
:103720006706803208F071C0E091670681E08E0F75
:10373000809367068091BB00F0E0E95BF94F8083DE
:103740003DC0803B39F0E0F4803A09F479C0883A12
:1037500009F09CCF84E080938E061092460610926A
:103760004506E0912D07F0912E07099580914506B9
:1037700081110FC081E0809345061092250609C093
:10378000803C09F4A6CF883C09F4A3CF883B09F01C
:103790007DCFE091460681E08E0F80934606F0E0F3
:1037A000EB5DF94F80818093BB009091460680913C
:1037B000450629C0809169068093BB0085EC809303
:1037C000BC0064CF90918B0680918A06981758F5BB
:1037D000E0918B0681E08E0F80938B06F0E0E65936
:1037E000F94F8081E9CFE0918B0681E08E0F8093C5
:1037F0008B068091BB00F0E0E659F94F80839091F1
:103800008B0680918A069817C8F285E8D8CFE09198
:103810008B0681E08E0F80938B068091BB00F0E0D9
:10382000E659F94F808380918D0681115CCF81E04C
:103830008093680684EA8093BC0010928E0626CF9F
:1038400085EC8093BC0010928E06809167068032D2
:1038500030F4E0916706F0E0E95BF94F1082609187
:10386000670670E0E0912B07F0912C0787E496E063
:103870000995109267060ACF10928C0634CFEF920A
:10388000FF920F931F93CF93DF93F82E192FE62EFD
:10389000042F81E0860F880F0E94820483E00E943B
:1038A0008204CF2DD12FEC0EFD2EF11CCE15DF059D
:1038B000B9F007FF13C0FE0184910E948204182F03
:1038C00080E00E948204812321968111EFCFDF9155
:1038D000CF911F910F91FF90EF9008958881EDCFC8
:1038E00081E0F5CFCF92DF92EF92FF920F931F937B
:1038F000CF93DF93E5E3F7E01382128288EEC82EC0
:1039000083E0D82EE12CF12CC482D582E682F782A6
:1039100081E491E0918380838DEC90E095878487AA
:103920008CEC90E09787868788EC90E0918B808B79
:1039300089EC90E0938B828B8AEC90E0958B848B62
:103940008EEC90E0978B868B118E128E138E148ED8
:10395000E2EDF7E013821282C482D582E682F7821A
:1039600083E591E0918380838FEF9FEF9587848734
:10397000EAE2F8E0C5E9D1E0D183C0831282138284
:103980001482158202E218E080E290E0F80191834F
:10399000808381E290E00E946D29F8019383828305
:1039A0009C01205E3F4F358324839783868321E2E9
:1039B000FC0111922A95E9F7E0E3F8E0D183C08396
:1039C0001282138214821582E6E3F8E0D183C08369
:1039D0001282138214821582ECE3F8E0D183C08353
:1039E0001282138214821582E2E4F8E0D183C0834C
:1039F0001282138214821582E8E4F8E013821282A4
:103A0000C482D582E682F78285E691E09183808345
:103A1000E1E6F8E0D183C08312821382148215821A
:103A2000E4E5F8E013821282C482D582E682F7824E
:103A300087E791E0918380838FEF8487DF91CF9137
:103A40001F910F91FF90EF90DF90CF900895CF934B
:103A5000DF93CDB7DEB7AC970FB6F894DEBF0FBEDD
:103A6000CDBF789484B5826084BD84B5816084BD07
:103A700085B5826085BD85B5816085BD80916E000C
:103A8000816080936E00109281008091810082603D
:103A9000809381008091810081608093810080917A
:103AA000800081608093800080919100826080938B
:103AB00091008091910081608093910080919000AD
:103AC0008160809390008091C10084608093C100E8
:103AD0008091C10082608093C1008091C1008160AB
:103AE0008093C1008091C30081608093C300809166
:103AF000C00082608093C0008091C200816080938A
:103B0000C20080917A00846080937A0080917A006C
:103B1000826080937A0080917A00816080937A003D
:103B200080917A00806880937A0010922507109225
:103B3000BD061092BC068091D70081608093D700AB
:103B400080EA8093D80089B5806189BD89B582609B
:103B500089BD09B400FEFDCF61E070E080E090E037
:103B60000E9444048091D8008F7C80618093D800AB
:103B70008091E000807F8093E0008091E1008E7E64
:103B80008093E1008DE08093E200559A209A8FEFB8
:103B90009FEF9093DF078093DE076DEA72E082ED7E
:103BA00097E00E94910DE0914507F091460782E071
:103BB0008083E0914107F09142071082E091430732
:103BC000F091440780E1808310924D07E09149070E
:103BD000F0914A0786E08083E0914707F09148071B
:103BE000808180618083E0914707F0914807808160
:103BF00088608083E0914707F09148078081806862
:103C00008083E0914707F091480780818F7D808312
:103C10006DE971E082ED97E00E94910D67E473E039
:103C200082ED97E00E947F0D85E397E09093340743
:103C30008093330705E010E084E493E00E944B0E8C
:103C4000892B09F42EC368EE73E080E090E00E94B7
:103C500044040150110981F76DE971E082ED97E0AC
:103C60000E94910D67E273E082ED97E00E947F0D64
:103C700068E873E180E090E078C36DE971E082ED7F
:103C800097E00E94910D6EEE72E082ED97E00E9447
:103C9000B30564EC71E082ED97E00E94910D6EEB4C
:103CA00076E082ED97E00E944D0D0E948715C12CB1
:103CB000D12C7601C39411E08F3F39F463EB72E0AD
:103CC00082ED97E00E944D0DFFCF8091F00690911C
:103CD000F106019709F44CC32BE0C216D104E104AC
:103CE000F10409F4A2C569EC72E082ED97E00E944C
:103CF000910DC701B6010E94940C62ED72E082ED55
:103D000097E00E94910D67E371E082ED97E00E94D9
:103D10004D0D1093F2060E948F12811112C082E0A5
:103D200090E09093F1068093F00660E177E280E006
:103D300090E00E9444048FEFC81AD80AE80AF80AF3
:103D4000C4CF81E090E0EDCF04E110E09E012F5F51
:103D50003F4F44E753E066E773E082E893E04DC3EA
:103D60000E94871567E673E0813011F06BE773E01E
:103D700082ED97E00E944D0D0E94760460930B0740
:103D800070930C0780930D0790930E0760ED77E01A
:103D900080E090E00E94440467E973E082ED97E0E0
:103DA0000E944D0D82E10E94FD039C01990F440B7E
:103DB000550B2E54324041095109A4E6B0E00E944F
:103DC0001629A50194010E94F728890130930A075A
:103DD0002093090764E170E080E090E00E944404D1
:103DE00017FF04C010920A071092090783E10E948E
:103DF000FD039C01990F440B550B28553240410996
:103E00005109A4E6B0E00E941629A70196010E947C
:103E1000F7288901309308072093070764E170E0D1
:103E200080E090E00E94440417FF04C0109208074D
:103E30001092070784E10E94FD039C01990F440B37
:103E4000550B2855324041095109A4E6B0E00E94C3
:103E50001629A70196010E94F728890130930607C9
:103E60002093050764E170E080E090E00E94440444
:103E700017FF04C0109206071092050785E10E9403
:103E8000FD039C01990F440B550B28553240410905
:103E90005109A4E6B0E00E941629A70196010E94EC
:103EA000F7288901309304072093030764E170E049
:103EB00080E090E00E94440417FF04C010920407C1
:103EC000109203078091090790910A070E943B0D09
:103ED00080910707909108070E943B0D809105078C
:103EE000909106070E943B0D809103079091040773
:103EF0000E943B0D0E9476040091FF06109100077E
:103F00002091010730910207601B710B820B930B0C
:103F1000613177428105910508F45BC06CE973E07B
:103F200082ED97E00E944D0D6AEA73E0CE010196A2
:103F30000E945F11BE016F5F7F4F809109079091D2
:103F40000A070E945A16CE0101960E947B1069EB67
:103F500073E0CE0101960E945F11BE016F5F7F4F3B
:103F600080910707909108070E945A16CE0101968A
:103F70000E947B1068EC73E0CE0101960E945F11F5
:103F8000BE016F5F7F4F80910507909106070E94E9
:103F90005A16CE0101960E947B1064EF71E080E01A
:103FA00090E00E94440464EF71E080E090E00E94A1
:103FB000440464EF71E080E090E00E9444040E94B9
:103FC00076046093FF067093000780930107909337
:103FD00002071092F6061092F5068091F70690916E
:103FE000F8068F3F980709F057C167ED73E082ED3F
:103FF00097E00E94910D8091F7069091F8060E943B
:104000003B0D1092F4061092F3066FEF73E082ED11
:1040100097E00E944D0D6DE074E082ED97E00E9404
:10402000910D8091F5069091F6060E943B0D69E195
:1040300074E082ED97E00E94910D8091FD069091D1
:10404000FE060E943B0D64E274E082ED97E00E9460
:10405000910D8091F3069091F4060E943B0D0E9411
:1040600076040091F9061091FA062091FB06309132
:10407000FC061B012C01201A310A420A530AB20124
:10408000A101CE014B960E94701140EC57E269E00D
:1040900070E0CE0145960E94701167E374E082EDF6
:1040A00097E00E94910DBE01655E7F4F82ED97E023
:1040B0000E94640D6FE474E082ED97E00E94910D20
:1040C000BE016B5E7F4F82ED97E00E94640DE1ECD4
:1040D0002E16E7E23E06E9E04E06510468F1009133
:1040E000F5061091F6060130110531F5209109070A
:1040F00030910A078091F3069091F406281739074A
:10410000DCF463E674E082ED97E00E944D0D1093BD
:10411000FE060093FD0668E774E0CE0101960E945A
:104120005F11BE016F5F7F4F81E090E00E945A16E1
:10413000CE0101960E947B10CE0145960E947B1015
:10414000CE014B960E947B108091FD069091FE0659
:10415000019709F077C062E874E082ED97E00E9471
:104160004D0D8091FD069091FE060E943B0D6FE97A
:1041700074E082ED97E00E944D0D61E086E00E94C0
:104180005B0362E370E080E090E00E94440461E041
:1041900084E00E945B0362E370E080E090E00E94B4
:1041A00044046EEA74E082ED97E00E944D0D60E2F7
:1041B0007EE480E090E00E94440468EC74E082EDCC
:1041C00097E00E944D0D60E086E00E945B0362E391
:1041D00070E080E090E00E94440460E084E00E948F
:1041E0005B0362E370E080E090E00E9444040E9480
:1041F00076046093F9067093FA068093FB06909319
:10420000FC061092FE061092FD061092F80610921F
:10421000F70668ED74E082ED97E00E944D0D68E7C7
:1042200074E0CE0101960E945F11BE016F5F7F4F67
:104230008091FD069091FE060E945A16CE010196CD
:104240000E947B108091030790910407813197426F
:10425000BCF065EF74E082ED97E00E944D0D0E9486
:1042600076046F57764988499109613A76488140CA
:10427000910530F060E275E082ED97E00E944D0D0F
:104280006114710409F481C20E947306882309F441
:104290007CC20E94000079C29093FE068093FD06C6
:1042A000B0CE87EE92E00E944B0E68EB7BE080E0A0
:1042B00090E00E9444040E94EF0282EE92E00E948D
:1042C0004B0E86ED92E00E944B0E68EC70E080E0B1
:1042D00090E00E9444048AEC92E00E944B0E8CEB2A
:1042E00092E00E944B0E8CEA92E00E944B0E8EE907
:1042F00092E00E944B0E68EC70E080E090E00E943B
:1043000044041092BE0606E010E02EEB36E047E8CB
:1043100052E06AE872E087E992E00E942B158091F2
:10432000BE068153823028F48091BF068E3209F494
:10433000A4CC6DE971E082ED97E00E94910D69E0F7
:1043400073E082ED97E00E94B30564EC71E082EDCA
:1043500097E00E94910D6EEB76E082ED97E00E946F
:104360004D0D60EA7FE080E090E00E9444049DCC27
:1043700062E775E082ED97E00E944D0D62E975E01D
:1043800082ED97E00E94910D0E948715682F82EDC3
:1043900097E00E94240D66EE72E082ED97E00E94A5
:1043A000910D1092C40600E210E024EC36E04FE5D7
:1043B00053E061E673E08AE693E00E942B1564EC1B
:1043C00076E082ED97E00E944D0D85E991E098A797
:1043D0008FA319A61AA61BA61CA68091F2068130EF
:1043E00009F0B2CC04E110E09E012F5F3F4F4CE892
:1043F00053E06EE873E087E993E00E942B15882371
:10440000A1F169E872E0CE0101960E946A250E943E
:1044100033258093E40669E872E090E080E00E9432
:104420006A250E9433258093E50669E872E090E0F2
:1044300080E00E946A250E9433258093E60669E8A1
:1044400072E090E080E00E946A250E94332580930C
:10445000E7068091E4069091E506A091E606B0910A
:10446000E70689A79AA7ABA7BCA76DEE72E082ED1D
:1044700097E00E94910DCE0187960E94140D0AE0EC
:1044800010E09E012F5F3F4F40EA53E063EA73E084
:1044900086EA93E00E942B158981082E000C990B67
:1044A000C09710E000E00A9740F4CE0101960E9408
:1044B000332500271127081B190B6AEF72E082EDE4
:1044C00097E00E94910DB801110F880B990B0E9483
:1044D000940C63E173E082ED97E00E944D0DE8EEED
:1044E000F6E086E0DF011D928A95E9F704E110E02D
:1044F0009E012F5F3F4F40EB53E062EB73E08CEB8C
:1045000093E00E942B15882309F454C067E174E0FE
:10451000CE0101960E946A2540E150E070E060E023
:104520000E941C246093ED0667E174E090E080E057
:104530000E946A2540E150E070E060E00E941C2487
:104540006093EC0667E174E090E080E00E946A25E9
:1045500040E150E070E060E00E941C246093EB06B4
:1045600067E174E090E080E00E946A2540E150E05D
:1045700070E060E00E941C246093EA0667E174E04A
:1045800090E080E00E946A2540E150E070E060E049
:104590000E941C246093E90667E174E090E080E0EB
:1045A0000E946A2540E150E070E060E00E941C2417
:1045B0006093E80686E0E8EEF6E0DE019196019071
:1045C0000D928A95E1F768E173E082ED97E00E9431
:1045D000910D7E01B1E2EB0EF11C10E000E0F7015D
:1045E00041917F0150E070E060E020E182ED97E0D2
:1045F0000E94480C0530110531F067E174E082ED4E
:1046000097E00E94910D0F5F1F4F0630110539F79B
:1046100082ED97E00E94100D85E991E09C8F8B8FD1
:104620001D8E1E8E1F8E18A28091F2068130B1F46D
:1046300004E110E09E012F5F3F4F45EC53E067EC33
:1046400073E089ED93E00E942B15882339F0BE01B9
:104650006F5F7F4FCE014B960E94040666E273E0C7
:1046600082ED97E00E94910DCE014B960E94140DB1
:1046700085E991E09E8B8D8B1F8A188E198E1A8E7C
:104680008091F2068130B1F404E110E09E012F5FC9
:104690003F4F44EE53E066EE73E088EF93E00E94F4
:1046A0002B15882339F0BE016F5F7F4FCE014596F1
:1046B0000E94040663E373E082ED97E00E94910D8F
:1046C000CE0145960E94140D60ED77E080E090E009
:1046D0000E9444040E94570A8091EE069091EF06D2
:1046E000009711F00E94092A86E090E00E946D294F
:1046F0008C0188E6D8018C9388E498E012969C930C
:104700008E93119713961C92139780E290E0159662
:104710009C938E9314971093EF060093EE060E94DD
:10472000570A81E0F8018383C8010E948F0A8FEF46
:104730009FEF9093DF078093DE0761E086E00E94A1
:10474000CC0361E088E00E94CC0361E089E00E9434
:10475000CC0361E08AE00E94CC0361E084E00E9427
:10476000CC0360E08CE00E94CC038AE1882E99247F
:104770009A94A92CB92C90E1C92EDD24DA94ED2C61
:10478000FD2C20E0622E20E0722E0E947604009123
:104790000B0710910C0720910D0730910E07601B3D
:1047A000710B820B930B613375478105910508F4FA
:1047B000EDCA0E948715813009F4DECA61E473E016
:1047C00082ED97E00E944D0D83E094E00E944B0E35
:1047D000892B41F060ED77E080E090E00E94440496
:1047E0000E94EF0268EE73E080E090E00E944404D3
:1047F00021E02093F2060E948F1205E110E00E9452
:104800008715813009F4ACCA0150110909F4A8CA0E
:1048100064EF71E080E090E00E94440469E872E097
:1048200082ED97E00E94910DEACF60EA75E082ED9B
:1048300097E00E944D0D48CFB0E0A0E0E2E2F4E244
:104840000C9422295C016B017A016115710519F044
:10485000FB0191838083E114F10451F0C7010297B9
:10486000839730F040E030E020E090E072C05E01DD
:10487000E5012196F5011081812F90E00E945125DC
:10488000892BA9F71D3201F52196F501118101E06F
:10489000E114F10409F4DAC0F0E1EF16F10409F0D3
:1048A00082C0103359F488818F7D883509F076C035
:1048B000198122960260F0E1EF2EF12C812C912CCF
:1048C000A12C88E0B82E8CC01B3221F4E501229681
:1048D000F501118100E0DCCFEAE0EE16F10409F405
:1048E000BBC0F0E1EF16F10409F06DC0E7CF78E04E
:1048F000E72EF12C812C912CA12C60E1B62E70C0FA
:104900003FE9310F3A3128F439EA332E80C021E0F3
:104910009AC0302F3170C114D10431F0222309F133
:104920002197F601D183C08327FF21C060E070E0AA
:1049300080E090E8311104C06FEF7FEF8FEF9FE7C9
:1049400022E230E030936A0820936908462F372F1F
:10495000282F642F732F822FCDB7DEB7E1E10C949F
:104960003E2901FF04C02297F601D183C08333237F
:1049700041F090958095709561957F4F8F4F9F4F37
:10498000E5CF97FFE3CF82E290E090936A088093AF
:1049900069086FEF7FEF8FEF9FE7D8CF10E3E11447
:1049A000F10409F4A4CF28E0E216F10409F4A2CF3F
:1049B0000CF092CF812C912CA12CE0E4BE2E82E051
:1049C000E816F10469F060E070E080E090E897019B
:1049D0000F2C000C440B550B0E94D52849015A019D
:1049E00020E060E070E0CB0127010F2C000C66088E
:1049F0007708FE0150ED352E310E39E0331540F4C5
:104A00003FEB310F3A3108F07BCF49EC342E310EB9
:104A10003E141F040CF07DCF27FD15C086169706A7
:104A2000A806B90678F0A30192010E94C528630D7B
:104A3000711D811D911D61307105810520E892076E
:104A400008F465CF2FEF21961081D3CF103309F4EE
:104A50002ACF2AE0E22EF12C9CEC892E982CA82C4F
:104A60009CE0B92EBDCFFC0188279927E8942191BD
:104A70002032E9F3293010F02E30C8F32B3241F008
:104A80002D3239F4689404C00E94A125820F911D33
:104A9000219120532A30C0F31EF4909581959F4FA9
:104AA000089591110C940E28803219F08950855088
:104AB000C8F70895FB01DC0105900D920020E1F795
:104AC0000895FC0105900020E9F7809590958E0FE0
:104AD0009F1F089547E658E00E946F250895FA0148
:104AE000A191B081009719F41097E1F0CD01DC019C
:104AF000CD010D90002011F4C00113C0FB012191E4
:104B0000222319F02015D9F7F3CFFB0121912015AD
:104B100019F41E92119606C02223C1F70D900020B1
:104B2000A1F7D001FA01A193B0830895BB274A30C1
:104B300031F4992322F4BDE2909581959F4F0C9416
:104B4000CC257AE0979F902D879F802D910D112481
:104B50000895BB27FA01A62F6217710581059105FB
:104B6000330B30FB66F0AA27660F771F881F991F4B
:104B7000AA1FA21710F0A21B63953850A9F7A05DD9
:104B8000AA3308F0A95DA19336F7B111B193108251
:104B9000CA010C942728BB27FB015527AA27880F99
:104BA000991FAA1FA41710F0A41B83955051B9F7A1
:104BB000A05DAA3308F0A95DA193009779F7B11120
:104BC000B1931192CB010C942728AEE0B0E0EBEE4C
:104BD000F5E20C942F290D891E898EE08C831A83AF
:104BE00009838FEF9FE79E838D83AE01475E5F4F02
:104BF0006F89788DCE0101960E9434262F813885E9
:104C0000020F131FF80110822E96E4E00C944B293A
:104C1000AEE0B0E0EEE0F6E20C942F298C01FA0150
:104C20008EE08C831A83098377FF02C060E070E80E
:104C3000615071097E836D83A901BF01CE01019688
:104C40000E9434264D815E8157FD0AC02F81388530
:104C5000421753070CF49A01020F131FF801108238
:104C60002E96E4E00C944B29ABE0B0E0EAE3F6E2E8
:104C70000C9421297C013B018A01FC0117821682D8
:104C8000838181FFC8C1CE0101965C01F701938148
:104C9000F30193FD859193FF81913F01882309F4EE
:104CA00053C1853239F493FD859193FF81913F0182
:104CB000853229F4B70190E00E943728E7CF912C84
:104CC000212C312CFFE1F31538F08B3211F190F4E7
:104CD000803209F1833229F137FC3CC020ED280FE6
:104CE0002A3050F536FE20C08AE0989E200D11240F
:104CF000922E06C08D3291F0803371F7689430F8AF
:104D0000F30193FD859193FF81913F018111DACFEA
:104D100021C0689431F8689432F8F2CF689433F87F
:104D2000EFCF689434F8ECCFEAE02E9E200D1124EA
:104D3000222E689435F8E4CF8E3229F436FC04C173
:104D4000689436F8DDCF8C3619F4689437F8D8CFEC
:104D50008836B1F2982F9F7D95549330E0F08336DA
:104D6000A1F18337C1F1833509F063C02801F2E076
:104D70004F0E511CF801C080D180692D70E036FCC7
:104D800002C06FEF7FEFC6010E9411284C016894AA
:104D900037F882010AC00C5F1F4FFFE3F9838824B4
:104DA0008394912C6501E89437F833FE2DC0522C82
:104DB0008114910471F5552009F468CFB70180E2A0
:104DC00090E00E9437285A94F6CFF80180818983B9
:104DD0000E5F1F4FE4CF2801F2E04F0E511CF80187
:104DE000C080D180692D70E036FC02C06FEF7FEF8C
:104DF000C6010E941C284C018201D5CFB70180E278
:104E000090E00E9437282A942814190409F0B0F77A
:104E1000CECFF60137FC859137FE81916F01B70146
:104E200090E00E94372851105A94F1E08F1A9108AF
:104E3000BFCF843619F0893609F077C0F80137FE04
:104E40006BC060817181828193810C5F1F4FF32D54
:104E5000FF763F2E97FF09C09095809570956195DC
:104E60007F4F8F4F9F4F689437F82AE030E0A501BD
:104E70000E946728C82ECA188C2C432C36FE0CC002
:104E8000E89440F8C91440F434FE05C032FC03C075
:104E9000F32DFE7E4F2E892C44FE95C0FE01EC0DB5
:104EA000F11D8081803309F087C0242D297E422E98
:104EB000842D8870582E43FC95C040FE8FC09C2CDA
:104EC000821418F42C0C922C981844FE91C0B7014F
:104ED00080E390E00E94372842FE09C088E790E016
:104EE00041FE02C088E590E0B7010E943728C9144E
:104EF00008F48AC0CA94D12C9FEFC91AD90ACA0CE7
:104F0000DB1CF60182916F01B70190E00E94372807
:104F1000AC14BD04B1F74FCF60817181072E000C36
:104F2000880B990B0E5F1F4F92CFD32CE894D4F8C7
:104F30002AE030E0853739F1232D297FD22E8F36B4
:104F400001F148F48835A9F0F701868197812B9605
:104F5000E2E10C943D29803749F08837A9F7D4FE67
:104F600002C06894D2F820E130E00DC06894D4F813
:104F7000F6CF34FE03C0822F8660D82E20E132E0C7
:104F800002C028E030E0F801D7FE0FC060817181D7
:104F9000828193810C5F1F4FA5010E946728C82E54
:104FA000CA183D2CE89437F867CF6081718190E092
:104FB00080E00E5F1F4FF0CF42FC02C0839478CF99
:104FC0008394839475CF842D867809F471CFF6CFBE
:104FD000B70180E290E00E94372883948214C0F3E6
:104FE000512C73CF522C5818821408F46ECFF8CF7E
:104FF000842D867809F47BCF8BE241FE80E247FC6A
:105000008DE2B70190E071CFB70180E390E00E949C
:1050100037289A946CCF8FEF9FEF99CF99278827E5
:105020000895FC010590615070400110D8F78095FB
:1050300090958E0F9F1F0895FC0161507040019064
:105040000110D8F7809590958E0F9F1F0895DC0171
:10505000FC01672F71917723E1F7329704C07C91AF
:105060006D9370836291AE17BF07C8F308950F93D5
:105070001F93CF93DF93182F092FEB018B8181FDB5
:1050800009C01FEF0FEF812F902FDF91CF911F915C
:105090000F91089582FF14C02E813F818C819D81E4
:1050A000281739073CF4E881F981CF0101969983EB
:1050B000888310838E819F8101969F838E83E3CFA7
:1050C000E885F985812F0995892BA1F3DACFFA01BB
:1050D000AA27283051F1203181F1E8946F936E7F37
:1050E0006E5F7F4F8F4F9F4FAF4FB1E03ED0B4E028
:1050F0003CD0670F781F891F9A1FA11D680F791F69
:105100008A1F911DA11D6A0F711D811D911DA11D79
:1051100020D009F468943F912AE0269F1124301989
:10512000305D3193DEF6CF010895462F4770405D24
:105130004193B3E00FD0C9F7F6CF462F4F70405DD3
:105140004A3318F0495D31FD4052419302D0A9F72E
:10515000EACFB4E0A6959795879577956795BA9528
:10516000C9F700976105710508959B01AC010A2EEE
:1051700006945795479537952795BA95C9F7620FC5
:10518000731F841F951FA01D0895DB018F939F93AC
:105190000E941629BF91AF91A29F800D911DA39FE0
:1051A000900DB29F900D11240895A1E21A2EAA1B12
:1051B000BB1BFD010DC0AA1FBB1FEE1FFF1FA217C7
:1051C000B307E407F50720F0A21BB30BE40BF50BC4
:1051D000661F771F881F991F1A9469F7609570954D
:1051E000809590959B01AC01BD01CF010895052EDE
:1051F00097FB1EF400940E940E2957FD07D00E94D1
:10520000D52807FC03D04EF40C940E2950954095F8
:10521000309521953F4F4F4F5F4F08959095809562
:10522000709561957F4F8F4F9F4F08950E94582929
:10523000A59F900DB49F900DA49F800D911D1124EA
:1052400008952F923F924F925F926F927F928F922A
:105250009F92AF92BF92CF92DF92EF92FF920F9305
:105260001F93CF93DF93CDB7DEB7CA1BDB0B0FB60F
:10527000F894DEBF0FBECDBF09942A8839884888CC
:105280005F846E847D848C849B84AA84B984C88462
:10529000DF80EE80FD800C811B81AA81B981CE0F59
:1052A000D11D0FB6F894DEBF0FBECDBFED0108953E
:1052B000A29FB001B39FC001A39F700D811D112457
:1052C000911DB29F700D811D1124911D0895EE0F47
:1052D000FF1F0590F491E02D09940F931F93CF9336
:1052E000DF938230910510F482E090E0E0916D0848
:1052F000F0916E0830E020E0B0E0A0E0309799F443
:105300002115310509F44AC0281B390B2430310519
:10531000D8F58A819B816115710589F1FB01938321
:105320008283FE0111C0408151810281138148179F
:105330005907E0F04817590799F4109761F0129651
:105340000C93129713961C933296CF01DF91CF9155
:105350001F910F91089500936D0810936E08F4CF7C
:105360002115310551F04217530738F0A901DB012F
:105370009A01BD01DF01F801C1CFEF01F9CF909390
:105380006E0880936D08CDCFFE01E20FF31F81936D
:1053900091932250310939832883D7CF20916B080C
:1053A00030916C08232B41F42091160130911701A4
:1053B00030936C0820936B082091140130911501F3
:1053C0002115310541F42DB73EB740911801509198
:1053D0001901241B350BE0916B08F0916C08E21762
:1053E000F307A0F42E1B3F0B2817390778F0AC0108
:1053F0004E5F5F4F2417350748F04E0F5F1F5093E5
:105400006C0840936B08819391939FCFF0E0E0E0AC
:105410009CCFCF93DF930097E9F0FC013297138282
:105420001282A0916D08B0916E08ED0130E020E08D
:105430001097A1F420813181820F931F20916B0876
:1054400030916C082817390709F061C0F0936C0897
:10545000E0936B08DF91CF910895EA01CE17DF0743
:10546000E8F54A815B819E0141155105B1F7E901DB
:10547000FB83EA8349915991C40FD51FEC17FD07AF
:1054800061F4808191810296840F951FE9019983CF
:105490008883828193819B838A83F0E0E0E0129687
:1054A0008D919C9113970097B9F52D913C9111978F
:1054B000CD010296820F931F20916B0830916C08EA
:1054C0002817390739F6309751F510926E08109267
:1054D0006D08B0936C08A0936B08BCCFD383C283D4
:1054E00040815181840F951FC817D90761F44E5F21
:1054F0005F4F88819981480F591F518340838A816A
:105500009B81938382832115310509F0B0CFF093FD
:105510006E08E0936D089ECFFD01DC01C0CF1382C1
:105520001282D7CFB0E0A0E0E8E9FAE20C94232998
:105530008C01009751F4CB010E946D298C01C801A8
:10554000CDB7DEB7E0E10C943F29FC01E60FF71F71
:105550009C0122503109E217F30708F49DC0D901DC
:10556000CD91DC911197C617D70798F0C530D105BA
:1055700030F3CE0104978617970708F3C61BD70BA5
:105580002297C193D1936D937C93CF010E94092AF6
:10559000D6CF5B01AC1ABD0A4C018C0E9D1EA091AA
:1055A0006D08B0916E08512C412CF12CE12C109714
:1055B00031F580916B0890916C088815990509F078
:1055C0005CC04616570608F058C0809114019091AF
:1055D0001501009741F48DB79EB740911801509185
:1055E0001901841B950BE817F90708F055C0F093D3
:1055F0006C08E0936B08F90171836083A0CF8D91F3
:105600009C91119712966C90129713967C90139719
:10561000A815B90559F56C0142E0C40ED11CCA1495
:10562000DB0420F1AC014A195B09DA0112961597E7
:1056300080F06282738251834083D9016D937C93A1
:10564000E114F10471F0D7011396FC93EE931297D5
:1056500076CF22968C0F9D1FF90191838083F301F1
:10566000EFCFF0936E08E0936D0869CF48165906A6
:1056700008F42C017D01D3019ACFCB010E946D2942
:105680007C01009749F0AE01B8010E944F2BC80180
:105690000E94092A870153CF10E000E050CFFB01A0
:1056A000DC0102C001900D9241505040D8F708959E
:1056B000DC0101C06D9341505040E0F70895FB01BB
:1056C000DC0101900D920020E1F70895FB01DC015F
:1056D0004150504048F001900D920020C9F701C0A0
:0E56E0001D9241505040E0F70895F894FFCF1E
:1056EE00FFFFFFFF00E1000000000000FFFFFFFFD3
:1056FE00FFFFFFFF00006F088000D305DA05E40509
:10570E00ED05F90500C18081000000626C756562CF
:10571E00657272696573005F4A6F736800000000FE
:10572E0000A806D7053606F4066706450659060094
:10573E0000000099071407BA07AF070008BE07DC80
:10574E000700000000D30BA60B020C7C0B9F0B8CEA
:10575E000B7D0B00000000FC09B50F020C6509F172
:10576E0009370F760F57139A137C099C13C0155DDA
:10577E000900000000C60C2B4950442C005B5769F1
:10578E0046694573705D20002C434C4F5345440DC4
:10579E000A003E006820006D20007B0A2276616CB4
:1057AE007565223A20000A7D00507265706172693B
:1057BE006E6720746F2073656E6420504F535420B3
:1057CE007265717565737420746F204164616672C1
:1057DE0075697420494F005365727665723A2000E0
:1057EE00466565643A20004461746120746F2073CD
:1057FE00656E643A2000436F6E6E656374696E6702
:10580E002E2E2E00504F5354202F6170692F76325A
:10581E002F6A7072696562652F66656564732F0005
:10582E002F6461746120485454502F312E3100433F
:10583E006F6E74656E742D4C656E6774683A2000D9
:10584E00504F535420726571756573742073656E75
:10585E00742E2057616974696E6720666F722072AC
:10586E006573706F6E73652E2E2E00436F6E6E65B0
:10587E006374696F6E206661696C656400696F2E72
:10588E0061646166727569742E636F6D0053455461
:10589E00555000576946692063686970206E6F74B1
:1058AE002070726573656E7400417474656D7074EA
:1058BE0020003A20436F6E6E656374696E672074C4
:1058CE006F2057504120535349443A2000495020ED
:1058DE00416464726573733A20005369676E616C3C
:1058EE0020737472656E6774682028525353492969
:1058FE003A20002064426D004D4143206164647281
:10590E006573733A20004761746577617920495059
:10591E003A20005375626E6574206D61736B3A2088
:10592E00005769466920636F6E6E656374696F6EAA
:10593E00206C6F73742E205265636F6E6E65637488
:10594E00696E672E2E2E005265636F6E6E656374E0
:10595E00656420746F2057694669004661696C65FD
:10596E006420746F207265636F6E6E65637420744D
:10597E006F2057694669004C4F4F500048545450A1
:10598E0020524551554553545300736F696C2D6D1C
:10599E006F6973747572653100736F696C2D6D6FFD
:1059AE006973747572653200736F696C2D6D6F69F2
:1059BE007374757265330042616420696F5F77613D
:1059CE007465725F6E6F772072657475726E207675
:1059DE00616C75652066726F6D20696F3A20005399
:1059EE00686F756C642077617465723F00417574E1
:1059FE006F2057617465723A005761746572204E5C
:105A0E006F773A004D6F69737475726520536574C4
:105A1E00706F696E743A0054696D652073696E63B8
:105A2E0065206C6173742077617465723A2000573B
:105A3E0061746572696E6720496E74657276616C09
:105A4E003A20004175746F2057617465722054724C
:105A5E00696767657265640077617465722D6E6F34
:105A6E0077004465636964656420746F20776174A0
:105A7E0065722C2077617465722D6E6F773D0057BD
:105A8E0041544552494E47204E4F572121007468CC
:105A9E00696E6773206172652067657474696E67DD
:105AAE00207765742E2E2E005761746572207374E4
:105ABE006F7070696E672E0053657474696E67201F
:105ACE0077617465725F6E6F7720746F2030206F10
