:100000000C94C1020C94E9020C94E9020C94E902EC
:100010000C94E9020C94E9020C94E9020C94E902B4
:100020000C94E9020C94E9020C94ED180C945C1900
:100030000C94E9020C94E9020C94E9020C94E90294
:100040000C94E9020C94E9020C94E9020C94E90284
:100050000C94E9020C94E9020C94E9020C94A318A4
:100060000C94E9020C94B41B0C948E1B0C94E902C2
:100070000C94E9020C94E9020C94E9020C94E90254
:100080000C94E9020C94E9020C94E9020C94E90244
:100090000C94E61B0C94E9020C94E9020C94E9021E
:1000A0000C94E9020C94E9020C94E902436F6E741B
:1000B000656E742D547970653A206170706C696357
:1000C0006174696F6E2F6A736F6E00436F6E6E6539
:1000D0006374696F6E3A206B6565702D616C69762B
:1000E0006500582D41494F2D4B65793A20386330D2
:1000F0003339313436656564643464363561383398
:100100003333333334396362646162373400486FA8
:1001100073743A20696F2E61646166727569742E1A
:10012000636F6D0025642E25642E25642E256400E2
:1001300044617461207061636B65742073656E64E3
:10014000206572726F722028322900446174612028
:100150007061636B65742073656E64206572726F85
:1001600072202831290041542B43495053454E44B5
:100170003D25642C2575004661696C656420746FAB
:1001800020777269746520746F20736F636B657478
:100190000041542B434950434C4F53453D25640087
:1001A000446973636F6E6E656374696E67200041A6
:1001B000542B434950535441545553002B434950F9
:1001C0005354415455533A25642C0041542B435702
:1001D000444843503D312C310041542B4357415545
:1001E000544F434F4E4E3D300041542B43495044F1
:1001F000494E464F3D310041542B4349504D5558CF
:100200003D310041542B43574D4F44453D31004152
:100210005445300041542B525354000D0A0053549E
:10022000415455533A0041542B434950535441547F
:10023000555300456E6420746167206E6F742066AC
:100240006F756E64004E6F2074616720666F756E07
:1002500064003E3E3E2054494D454F5554203E3E9D
:100260003E00080B00020202000009040000010227
:1002700002000005240010010524010101042402EC
:10028000060524060001070581031000400904014A
:1002900000020A0000000705020240000007058373
:1002A000024000000403090412010002EF020140B1
:1002B0004123368000010102030141726475696EB9
:1002C0006F204C4C430041726475696E6F204C6521
:1002D0006F6E6172646F000D0A0053444B207665A7
:1002E0007273696F6E3A0041542B474D5200496E4C
:1002F0006974696C697A6174696F6E207375636380
:1003000065737366756C202D005761726E696E6738
:100310003A20556E737570706F72746564206669EB
:10032000726D776172650043616E6E6F7420696EE5
:10033000697469616C697A6520455350206D6F64FA
:10034000756C6500415400496E697469616C697A25
:10035000696E6720455350206D6F64756C6500228F
:10036000002B43574A41503A220041542B43574AED
:1003700041503F0022002B43495041503A69703AA6
:10038000220041542B43495041503F0022003A5330
:10039000544149502C220041542B434946535200AA
:1003A0000D0A002C2D0041542B43574A41503F0069
:1003B000070605040100080A0B0C0D0900000000E7
:1003C000240027002A002D00300000000000250036
:1003D00028002B002E00310004040404040304054B
:1003E00002020202040302020202060606060606D2
:1003F00004040202020404040802011040804010B8
:10040000204080408008020401804020100201103A
:100410008010204040200000000200090F0000036F
:100420000401000C000000000000000000000000BB
:100430000000000000436F6E6E656374696F6E3A72
:1004400020636C6F736500582D41494F2D4B6579C2
:100450003A20386330333931343665656464346446
:100460003635613833333333333439636264616230
:10047000373400486F73743A20696F2E6164616687
:10048000727569742E636F6D0054494D454F555414
:100490003A0054616720434C4F534544206E6F74BB
:1004A00020666F756E64004E6F20736F636B6574AA
:1004B00020617661696C61626C650041542B43492F
:1004C0005053544152543D25642C22544350222C05
:1004D000222573222C257500436F6E6E6563746947
:1004E0006E6720746F0044617461207061636B6596
:1004F000742073656E64206572726F7220283229D1
:100500000044617461207061636B65742073656E73
:1005100064206572726F72202831290041542B4388
:10052000495053454E443D25642C2575004661696C
:100530006C656420746F20777269746520746F2015
:10054000736F636B657400436F6E6E65637465648F
:1005500020746F004661696C656420636F6E6E6520
:100560006374696E6720746F0041542B43574A418E
:10057000505F4355523D222573222C2225732200C1
:10058000381D11241FBECFEFDAE0DEBFCDBF16E06D
:10059000A0E0B1E0EAEFF4E502C005900D92A23AC6
:1005A000B107D9F729E0A2EAB6E001C01D92A53053
:1005B000B207E1F712E0C1ECD2E004C02197FE01DE
:1005C0000E945328C03CD107C9F70E94ED1D0C942E
:1005D0007B2A0C9400008091CB079091CC07DC0122
:1005E000ED91FC910084F185E02D0995181619060E
:1005F00064F48091CB079091CC07DC01ED91FC91E4
:100600000284F385E02D0995E6CF089508950895B5
:10061000FC018091BC07882311F13FB7F89482E078
:100620008093E9002091F200822F90E018161906BD
:1006300014F481E090E0882339F0289844E6409350
:10064000BB074091F1004083222339F02091F20052
:10065000211103C02BE62093E8003FBF08958FEFE0
:100660009FEF08952FB7F89483E08093E90090916D
:10067000E800892F807295FF04C09091F20080E419
:10068000891B2FBF08958091B30781110DC082E0AF
:100690008093AF0784E08093B0071092B207109266
:1006A000B10781E08093B3078FEA97E00895282F80
:1006B00030E0F901EA5EFB4F9491F901E950FC4FFB
:1006C000849128523C4FF9012491222309F430C02F
:1006D0009923E9F091509F30D0F4E92FF0E0ED58E4
:1006E000FC4F0C945328A103A503820399039D0397
:1006F000870387038703A803AE03B203B603BC03D3
:100700008703C003909180009F7790938000E22F31
:10071000F0E0EE0FFF1FE653FC4FA591B4919FB799
:10072000F894EC91611132C080958E238C939FBF19
:100730000895909180009F7DE8CF90918000977FF1
:10074000E4CF94B59F7794BDE2CF94B59F7DFBCF66
:10075000909190009F7790939000D9CF90919000C6
:100760009F7DF9CF90919000977FF5CF9091C00039
:100770009F779093C000CBCF9091C0009F7DF9CF21
:100780009091C200977F9093C200C1CF8E2BCECFA5
:10079000CF93DF9390E0FC01E950FC4F2491885205
:1007A0009C4FFC0184918823D1F090E0880F991F21
:1007B000FC01E454FC4FA591B491FC01E653FC4FBD
:1007C000C591D49161110EC09FB7F8948C91E22F1E
:1007D000E0958E238C932881E223E8839FBFDF91ED
:1007E000CF9108958FB7F894EC91E22BEC938FBFE3
:1007F000F6CF8251E82FF0E0E055FC4FE491909164
:100800007B008E2F880F880F80729F7D892B8093AD
:100810007B00E770E064E0937C0080917A00806464
:1008200080937A0080917A0086FDFCCF80917800D9
:100830009091790008953FB7F8948091AB0790911B
:10084000AC07A091AD07B091AE0726B5A89B05C037
:100850002F3F19F00196A11DB11D3FBFBA2FA92F3F
:10086000982F8827BC01CD01620F711D811D911D3C
:1008700042E0660F771F881F991F4A95D1F70895A8
:100880008F929F92AF92BF92CF92DF92EF92FF92A0
:100890006B017C010E941B044B015C01C114D1045B
:1008A000E104F104B9F00E941B04681979098A096E
:1008B0009B09683E73408105910580F321E0C21ACF
:1008C000D108E108F10888EE880E83E0981EA11C8B
:1008D000B11CE4CFFF90EF90DF90CF90BF90AF902E
:1008E0009F908F9008952FB7F8946091A70770910B
:1008F000A8078091A9079091AA072FBF089540915A
:1009000056075091570720915407309155074217C9
:100910005307B4F49091E8009570E1F39091E800EA
:1009200092FD19C08093F10080915607909157076E
:1009300001968F739927892B19F48EEF8093E80025
:10094000809156079091570701969093570780938F
:10095000560781E0089580E00895DF92EF92FF92BC
:100960000F931F93CF93DF93D82E8A01EB017B0166
:10097000E40EF51ECE15DF0559F0D7FE12C0FE01BC
:1009800084910E947F0421968111F4CF0FEF1FEF15
:10099000C801DF91CF911F910F91FF90EF90DF90F1
:1009A00008958881EECF0F931F93CF93DF931F920B
:1009B000CDB7DEB782E0898342E450E062E672E0C0
:1009C00080E80E94AD040E944303DC0112960D9161
:1009D0001C910115110589F0D801ED91FC9102805F
:1009E000F381E02DBE016F5F7F4FC801099597FD30
:1009F00004C0F80100851185ECCF89810F90DF914B
:100A0000CF911F910F910895615030F02091F10026
:100A1000FC0120830196F8CF289884E68093BB07D9
:100A200008950F931F93CF93DF93EC010E947304FB
:100A3000688779878A879B87E881F9810484F585AF
:100A4000E02DCE01099597FF15C00E94730408851B
:100A500019852A853B85601B710B820B930B0C81DA
:100A60001D812E813F81601771078207930720F354
:100A70008FEF9FEFDF91CF911F910F910895BF925C
:100A8000CF92DF92EF92FF920F931F93CF93DF935A
:100A90008C01C8010E941105EC0197FD5DC0D801D1
:100AA000ED91FC910284F385E02D8D32910521F0CA
:100AB000C0970A9708F04AC0C12CD12C7601B12CFE
:100AC000C130D105D9F0CD32D10509F442C0CE01F3
:100AD000C0970A9798F4AAE0B0E0A70196010E9497
:100AE00002286E01DD0FEE08FF08C60ED71EE81EB5
:100AF000F91EB0E3CB1AD108E108F108D801ED9155
:100B0000FC910284F385E02DC8010995C8010E947B
:100B10001105EC01C0970A9798F2C130D10581F216
:100B2000BB2041F0F094E094D094C094C11CD11C3F
:100B3000E11CF11CC701B601DF91CF911F910F910C
:100B4000FF90EF90DF90CF90BF900895C801099576
:100B5000A0CFBB24B394D2CFC12CD12C7601EACF45
:100B6000EF92FF920F931F93CF93DF938C017B0142
:100B7000D0E0C0E0F701EC0FFD1F6491662361F047
:100B8000D801ED91FC910190F081E02DC80109950B
:100B9000892B11F02196EECFCE01DF91CF911F91DD
:100BA0000F91FF90EF900895AF92BF92CF92DF9296
:100BB000EF92FF920F931F93CF93DF936C017B0112
:100BC0008B01040F151FEB015E01AE18BF08C017A3
:100BD000D10759F06991D601ED91FC910190F08116
:100BE000E02DC6010995892B79F7C501DF91CF91D9
:100BF0001F910F91FF90EF90DF90CF90BF90AF903B
:100C00000895FC01538D448D252F30E0842F90E012
:100C1000821B930B541710F0CF96089501970895F7
:100C2000FC01918D828D981761F0A28DAE0FBF2FC0
:100C3000B11D5D968C91928D9F5F9F73928F90E016
:100C400008958FEF9FEF0895FC01918D828D981785
:100C500031F0828DE80FF11D858D90E008958FEFC2
:100C60009FEF0895FC01918D228D892F90E0805C8B
:100C70009F4F821B91098F73992708958DEC97E000
:100C80000E94320621E0892B09F420E0822F08958A
:100C900080E090E0892B29F00E943E0681110C949F
:100CA00000000895FC01A48DA80FB92FB11DA35A0F
:100CB000BF4F2C91848D90E001968F739927848F7C
:100CC000A689B7892C93A089B1898C9182748C9361
:100CD000938D848D981306C00288F389E02D80815E
:100CE0008F7D80830895EF92FF920F931F93CF9390
:100CF000DF93EC0181E0888F9B8D8C8D981319C058
:100D0000E889F989808185FF14C09FB7F894EE893E
:100D1000FF896083E889F9898081827480839FBF1D
:100D200081E090E0DF91CF911F910F91FF90EF90C4
:100D30000895F62E0B8D10E00F5F1F4F0F731127D4
:100D4000E02E8C8D8E110CC00FB607FCFACFE8890F
:100D5000F989808185FFF5CFCE010E945206F1CF3F
:100D6000EB8DEC0FFD2FF11DE35AFF4FF0829FB783
:100D7000F8940B8FEA89FB8980818062CFCFCF9373
:100D8000DF93EC01888D8823B9F0AA89BB89E889B3
:100D9000F9898C9185FD03C0808186FD0DC00FB659
:100DA00007FCF7CF8C9185FFF2CF808185FFEDCFD7
:100DB000CE010E945206E9CFDF91CF9108958F9224
:100DC0009F92AF92BF92CF92DF92EF92FF920F93DA
:100DD0001F93CF93DF936C017B018A0180910B01FC
:100DE000882309F45CC08091BC07882309F457C0AC
:100DF00080915A0780FF05C08091E0008260809357
:100E0000E000E801B12C8AEFA82E93E0892E2AE3B6
:100E1000922E209711F4BB20D9F10E943203811148
:100E20000AC0AA94AA20D9F161E070E080E090E0C5
:100E30000E944004EECF8C171D0611F00CF08C2F91
:100E40009FB7F8948092E9002091E80025FD02C048
:100E50009FBFDFCF282F30E0C21BD30BF70181509B
:100E600020F041914093F100FACFE20EF31EBB2037
:100E700021F09092E800B12CEBCF8091E80085FD45
:100E8000E7CF9092E800BB24B394209709F3F3CF07
:100E90005D9884E680935907101611063CF081E0B6
:100EA00090E0F6019383828310E000E0C801DF91B7
:100EB000CF911F910F91FF90EF90DF90CF90BF9057
:100EC000AF909F908F900895CF93DF931F92CDB7EF
:100ED000DEB76983DC01ED91FC910280F381E02DA6
:100EE00041E050E0BE016F5F7F4F09950F90DF91A9
:100EF000CF91089583E08093E9008091F2008823E8
:100F000019F08AE38093E80008950E94320390E08C
:100F10000895CF93DF931F92CDB7DEB7FC01848590
:100F2000958597FD08C02FEF3FEF358724870F90F9
:100F3000DF91CF910895CE0101960E940803019799
:100F400019F4898190E0F3CF8FEF9FEFF0CF0F93EB
:100F50001F93CF93DF931F92CDB7DEB78C01FC01B7
:100F60008485958597FF0BC0CE0101960E940803EA
:100F7000019771F4898190E0F80195878487F801E1
:100F8000848595850F90DF91CF911F910F910895E2
:100F90008FEF9FEFF1CFFC018485958597FD0BC006
:100FA0009FB7F89482E08093E9008091F2009FBFA0
:100FB00090E0019608959FB7F89482E08093E9004D
:100FC0008091F2009FBF90E008958F929F92AF9220
:100FD000BF92CF92DF92EF92FF920F931F93CF9326
:100FE000DF934091BF075091C0076091C107709196
:100FF000C207141615061606170644F49091BE078C
:10100000981709F417C1992309F414C1F82E809197
:10101000CB079091CC07DC01ED91FC910084F18528
:10102000E02D0995892B19F450E040E003C10091AF
:10103000CB071091CC07D0E0C0E00E947304F80108
:101040006087718782879387D801ED91FC91028434
:10105000F385E02DC801099597FF47C00E947304EE
:10106000F80180849184A284B384681979098A097B
:101070009B0984809580A680B780681579058A05CC
:101080009B0510F3D1CFC1E0D0E0D7CF4F014BE9A2
:1010900051E0209791F2BE012197D4012E914D018C
:1010A000022E000C330B8217930729F0209729F2A8
:1010B0004F5F5F4FF0CF209731F36A01BFEFCB1A3C
:1010C000DB0AABE9B1E030E020E0BD90F601E19051
:1010D0006F01BE1005C02F5F3F4F2C173D07A8F3CF
:1010E000C217D30729F7EB01A8CFFE01E556FE4F43
:1010F0002081022E000C330B8217930739F62196BC
:10110000C530D10509F099CF8091CB079091CC07DC
:101110000E943F056093BE078091CB079091CC075A
:10112000DC01ED91FC910284F385E02D099580911D
:10113000CB079091CC070E943F056093BF07709347
:10114000C0078093C1079093C2078091CB0790910D
:10115000CC07DC01ED91FC910284F385E02D09952B
:101160008091CB079091CC070E943F058091CB07DF
:101170009091CC07DC01ED91FC910284F385E02D88
:1011800009958091CB079091CC070E943F058091F3
:10119000CB079091CC07DC01ED91FC910284F385A3
:1011A000E02D09958091CB079091CC070E943F05D7
:1011B0008091CB079091CC07DC01ED91FC910284EA
:1011C000F385E02D09958091CB079091CC070E9483
:1011D0003F058091CB079091CC07DC01ED91FC910C
:1011E0000284F385E02D09958091CB079091CC077F
:1011F000DC01ED91FC910284F385E02D099580914D
:10120000CB079091CC070E943F058091CB0790912E
:10121000CC07DC01ED91FC910284F385E02D09956A
:101220008091BE07F81611F0F110FECE4091BF0775
:101230005091C007CA01DF91CF911F910F91FF908C
:10124000EF90DF90CF90BF90AF909F908F900895D8
:1012500021E0FC0184858F3F09F420E0822F08956E
:10126000CF93DF93EC01E881F9810084F185E02DD3
:10127000CE010995892B41F0E881F9810284F3853B
:10128000E02DCE010995EFCFDF91CF9108958F9298
:101290009F92AF92BF92EF92FF920F931F93CF93C3
:1012A000DF93EC017B018A01E881F9810084F185FB
:1012B000E02D0995892B69F48FEF9FEFDF91CF9196
:1012C0001F910F91FF90EF90BF90AF909F908F90E4
:1012D00008959C858091BE07981336C08091BF0702
:1012E0009091C007A091C107B091C207A80170E01A
:1012F00060E084179507A607B7070CF48C01E70197
:10130000E00EF11EEC16FD06E9F00E9473044B019D
:101310005C018091CB079091CC07DC01ED91FC91B1
:101320000284F385E02D099597FF11C00E94730494
:10133000681979098A099B09683E734081059105FE
:1013400040F3BACFC801BACF80E090E0B7CF89931D
:101350008091BF079091C007A091C107B091C207CB
:101360000197A109B1098093BF079093C007A0938B
:10137000C107B093C207C6CFFC0184858F3F21F01F
:101380000E94E50797FF02C090E080E00895CF93A8
:10139000DF931F92CDB7DEB76983DC01ED91FC913D
:1013A0000280F381E02D41E050E0BE016F5F7F4F8E
:1013B00009950F90DF91CF9108952091E306260FB4
:1013C0003327331F21323105ECF420912C07FC0127
:1013D00090E080E0243069F082E00895A091E30677
:1013E0002191AC014D53594FA40FB52FB11D2C9332
:1013F0000196861798F38091E306680F6093E306E1
:1014000080E0089581E0089510922C0781E0809398
:101410002B071092060761E082E00E94570361E00B
:1014200083E00E945703E9EBF0E080818E7F8083A8
:1014300080818D7F808388E48093B80085E48093E9
:10144000BC0008951092CA071092C9071092C807ED
:101450001092C7070E94040A86E093E09093C607A3
:101460008093C50787E093E09093C4078093C307F8
:101470000895CF93DF9391E09093C2068823B9F04B
:10148000C091B800D091BA008091BC008A7B809353
:10149000BC0060E082E00E94570360E083E00E94AD
:1014A00057030E94040AD093BA00C093B800DF919A
:1014B000CF910895CF92DF92EF92FF920F931F93F7
:1014C000CF93DF93EC018B81882309F479C0C88125
:1014D00081E080933207C09353071092C80710929F
:1014E000C7070E941B046B017C0180912C078111AE
:1014F00079C082E080932C0781E080932B078FEFE7
:1015000080932A0710922907109228071092070744
:1015100080910707CC0FC82BC0930707809106075F
:10152000813009F090C0109206070E941B046B01E5
:101530007C01809107078093BB0080912E079091DA
:101540002F07A0913007B0913107892B8A2B8B2B65
:10155000A1F00E941B0400912E0710912F072091EB
:101560003007309131076C197D098E099F090617E4
:1015700017072807390708F456C08091BC0083FD7F
:10158000D8CF85EC8093BC000E941B046B017C01CA
:1015900080912C07823009F458C080912A0790E08E
:1015A0008F3F09F445C080912A0792E0803209F408
:1015B0003FC080912A0794E08033D1F593E038C092
:1015C0000E94220A81E08B83CE010E945A0A811177
:1015D0007ECFDF91CF911F910F91FF90EF90DF9021
:1015E000CF90089580912E0790912F07A0913007FA
:1015F000B0913107892B8A2B8B2B09F476CF0E946F
:101600001B0400912E0710912F0720913007309175
:1016100031076C197D098E099F09061717072807DE
:10162000390708F062CF80912D070E94390A95E0B2
:101630001092C8071092C7071092320781E09923D1
:1016400041F280E0C6CF85EE9DCF80912E0790912C
:101650002F07A0913007B0913107892B8A2B8B2B54
:1016600009F496CF0E941B0400912E0710912F07BA
:1016700020913007309131076C197D098E099F093F
:10168000061717072807390708F082CFCCCF08952F
:10169000E091CA078091C907E81730F4F0E0EE55F1
:1016A000F94F808190E008958FEF9FEF089590911A
:1016B000CA078091C9072FEF3FEF981748F4E92F29
:1016C000F0E0EE55F94F208130E09F5F9093CA071C
:1016D000C90108958091C9079091CA07891B990B88
:1016E0000895CF92DF92EF92FF920F931F93CF93C3
:1016F000DF937C01CB018A0120913207222389F0FC
:10170000EB016B01C40ED51ECC15DD0569F06991A6
:10171000D701ED91FC910190F081E02DC701099571
:10172000F3CF642F0E94DD09C801DF91CF911F9193
:101730000F91FF90EF90DF90CF900895CF93DF93BC
:101740001F92CDB7DEB76983209132072223F9F0CB
:101750002091C707203258F021E030E0FC013383AC
:10176000228390E080E00F90DF91CF9108958091E7
:10177000C807E82FF0E0ED5CF84F998190838F5F08
:101780008093C8078093C70781E090E0ECCF61E0C9
:10179000CE0101960E94DD09F7CF90E080E0089528
:1017A000FC0101900020E9F731979F01281B390BBC
:1017B000E091C008F091C108E21BF30B4091BC0816
:1017C0005091BD08E417F50730F46091BA087091A4
:1017D000BB08E60FF71F280F391F6091BE087091F4
:1017E000BF08DC018217930758F40196BC91A081D1
:1017F000BA1308C03196E617F70799F7FA01F1CF47
:1018000081E0089580E00895FB0101900020E9F750
:101810003197AF01461B570BDC01ED91FC91028023
:10182000F381E02D09948F929F92AF92BF92EF9235
:10183000FF920F931F93CF93DF93CDB7DEB7A1979E
:101840000FB6F894DEBF0FBECDBF7C01FA01CB010D
:1018500019A2223008F42AE08E010F5D1F4F822E5C
:10186000912CB12CA12CBF01A50194010E94C1278C
:10187000F901CA016A300CF5605DD8016E938D01E3
:10188000232B242B252B79F790E080E0109721F073
:10189000BD01C7010E94040CA1960FB6F894DEBFEB
:1018A0000FBECDBFDF91CF911F910F91FF90EF90B1
:1018B000BF90AF909F908F900895695CDECFCF92DC
:1018C000DF92EF92FF92CF93DF93AB01BC0177FFE2
:1018D0001DC06A017C016DE28AE698E00E946407FF
:1018E000EC0144275527BA014C195D096E097F099F
:1018F0002AE08AE698E00E94130C8C0F9D1FDF916E
:10190000CF91FF90EF90DF90CF9008952AE08AE684
:1019100098E0DF91CF91FF90EF90DF90CF900C9403
:10192000130C8F929F92AF92BF92CF92DF92EF9261
:10193000FF920F931F93CF93DF937C01EB016C0118
:1019400082E0C80ED11C4701E5E08E0E911C10E02C
:1019500000E0F60141916F0150E070E060E02AE0A4
:10196000CE010E94130C5C01E881F9810190F081A5
:10197000E02D6EE2CE0109958A0D9B1D080F191FFF
:10198000C814D90431F7F701458150E070E060E0F8
:101990002AE0CE010E94130C800F911FDF91CF919E
:1019A0001F910F91FF90EF90DF90CF90BF90AF907D
:1019B0009F908F90089563EB71E00C94040CCF938B
:1019C000DF93482F50E070E060E02AE08AE698E07C
:1019D0000E94130CEC018AE698E00E94DB0C8C0F4D
:1019E0009D1FDF91CF910895CF93DF93BC01990F95
:1019F000880B990B0E945F0CEC018AE698E00E942C
:101A0000DB0C8C0F9D1FDF91CF9108950F931F93D7
:101A1000CF93DF938C01D0E0C0E06115710519F020
:101A20000E94040CEC01C8010E94DB0C8C0F9D1F6E
:101A3000DF91CF911F910F9108950F931F93CF9333
:101A4000DF93EC01FB014481558160817181E88164
:101A5000F9810280F381E02D09958C01CE010E946D
:101A6000DB0C800F911FDF91CF911F910F91089593
:101A70000F931F93CF93DF93EC010E94B0058C016D
:101A8000CE010E94DB0C800F911FDF91CF911F913F
:101A90000F9108950C94040C3F924F925F926F92B5
:101AA0007F928F929F92AF92BF92CF92DF92EF92EE
:101AB000FF920F931F93CF93DF936C012B01342E72
:101AC0008091BC089091BD089093C1088093C00894
:101AD0000E9473044B015C0166246A94762C0D2CE1
:101AE000000CEE08FF080E947304681979098A093E
:101AF0009B096C157D058E059F0508F05BC08FEF77
:101B00006816780609F056C08091CB079091CC07F3
:101B1000DC01ED91FC910084F185E02D0995892B84
:101B200011F38091CB079091CC07DC01ED91FC91F2
:101B30000284F385E02D0995E091C008F091C10879
:101B400080838091C0089091C10801969093C1084C
:101B50008093C0082091BE083091BF088217930778
:101B600040F08091BC089091BD089093C10880938B
:101B7000C0084114510441F0C2010E94D00B8823D7
:101B800019F085E0682E712C332009F4ACCF0EE1FA
:101B900011E0D0E0C0E0F801819191918F010E94A5
:101BA000D00B811105C02196C530D105A1F79BCF7F
:101BB0003E0199CF0E947304681979098A099B092B
:101BC0006C157D058E059F0560F061EA71E08AE67F
:101BD00098E00E944A0D62E572E08AE698E00E9471
:101BE000380DC301DF91CF911F910F91FF90EF90BE
:101BF000DF90CF90BF90AF909F908F907F906F902D
:101C00005F904F903F900895CF93DF93EC010E9437
:101C1000EB02BE018091CB079091CC070E94380D5A
:101C200041E070E060E088EE93E0DF91CF910C94AA
:101C30004C0D84E192E00E94040E68EB7BE080E0B2
:101C400090E00E9440040E94EB028FE092E00E942C
:101C5000040E83E092E00E94040E68EC70E080E0E5
:101C600090E00E94400487EF91E00E94040E89EE0C
:101C700091E00E94040E89ED91E00E94040E8BEC2D
:101C800091E00E94040E68EC70E080E090E00C941B
:101C90004004AF92BF92CF92DF92EF92FF920F93E8
:101CA0001F93CF93DF93B82EEB01A42E89010E94DE
:101CB00073046B017C018091CB079091CC07DC0110
:101CC000ED91FC910084F185E02D0995892B09F4B3
:101CD0007EC08091CB079091CC07DC01ED91FC9107
:101CE000AA20E9F00484F585E02D09958883809188
:101CF000BF079091C007A091C107B091C207892B7F
:101D00008A2B8B2B29F181E0DF91CF911F910F91CD
:101D1000FF90EF90DF90CF90BF90AF900895028436
:101D2000F385E02D099588838091BF079091C007C6
:101D3000A091C107B091C2070197A109B109809391
:101D4000BF079093C007A093C107B093C207CFCF3E
:101D500065E070E080E090E00E9440048091CB0755
:101D60009091CC07DC01ED91FC910084F185E02D90
:101D70000995892B41F28091CB079091CC07DC012A
:101D8000ED91FC910484F585E02D09952B2D30E033
:101D9000205D3F4F8217930709F0B5CF40E06CEA12
:101DA00071E084EF91E00E944C0D059761F061EACB
:101DB00071E08AE698E00E944A0D62E974E08AE6E2
:101DC00098E00E94380D81E0F80180839DCF0E9449
:101DD00073046C197D098E099F09603D7740810568
:101DE000910508F468CF61EA71E08AE698E00E9404
:101DF0004A0D69E874E08AE698E00E94B00561EE59
:101E000072E08AE698E00E944A0D6091BF077091E7
:101E1000C0078091C1079091C2070E945F0C8AE6BB
:101E200098E00E94DB0C1092BF071092C00710923E
:101E3000C1071092C2071092BE07188280E064CFDB
:101E40000F931F93CF93DF9300D0CDB7DEB78C01F4
:101E5000DC01ED91FC910084F185E02D0995892B41
:101E600059F11A82F80184859091BE07891309C03F
:101E70009E012E5F3F4F41E0BE016F5F7F4F0E948A
:101E8000490E8A81882379F0D8011C96EC911C9721
:101E9000F0E0EE0FFF1FE05FFE4F8FEF9FEF9183AB
:101EA00080831C968C93898190E00F900F90DF9136
:101EB000CF911F910F9108958FEF9FEFF6CF0F9362
:101EC0001F93CF93DF9300D0CDB7DEB78C01DC0139
:101ED000ED91FC910084F185E02D0995892B59F154
:101EE0001A82F80184859091BE07891309C09E016A
:101EF0002E5F3F4F40E0BE016F5F7F4F0E94490E53
:101F00008A81882379F0D8011C96EC911C97F0E027
:101F1000EE0FFF1FE05FFE4F8FEF9FEF91838083F7
:101F20001C968C93898190E00F900F90DF91CF9158
:101F30001F910F9108958FEF9FEFF6CFAF92BF9251
:101F4000CF92DF92EF92FF920F931F93CF93DF9385
:101F5000CDB7DEB764970FB6F894DEBF0FBECDBF26
:101F60007C015B018A01DC011C968C91843018F4A1
:101F700041155105C9F481E090E0F7019383828314
:101F800010E000E0C80164960FB6F894DEBF0FBE03
:101F9000CDBFDF91CF911F910F91FF90EF90DF9018
:101FA000CF90BF90AF9008951F934F931F928F9340
:101FB00086E691E09F938F939E012F5F3F4F6901CB
:101FC0003F932F930E94E124B6018091CB0790911B
:101FD000CC070E94060D40E066EB71E088EE93E0CE
:101FE0000E944C0D0FB6F894DEBF0FBECDBF059713
:101FF000B9F161EA71E08AE698E00E944A0D6BE46B
:1020000071E08AE698E00E94380D81E090E0F701E7
:102010009383828361EA71E08AE698E00E944A0D28
:1020200067E771E08AE698E00E94B00561EE72E031
:102030008AE698E00E944A0DD7011C968C910E9476
:10204000DF0C60EA7FE080E090E00E944004D7016E
:10205000ED91FC910488F589E02DC701099590CF99
:102060008091CB079091CC07DC01ED91FC9102802F
:10207000F381E02DA801B501099541E070E060E031
:1020800080ED97E00E944C0D039709F47BCF61EA45
:1020900071E08AE698E00E944A0D60E371E0B1CFFA
:1020A000CF93DF93EC0188819981009711F00E9412
:1020B000F528198218821D821C821B821A82DF91E8
:1020C000CF910895FC0180819181009711F00C94CB
:1020D000F52808950F931F93CF93DF93EC01888128
:1020E0009981009759F02A813B812617370730F0F4
:1020F00081E0DF91CF911F910F9108958B016F5F68
:102100007F4F0E947E29009759F0998388831B8313
:102110000A832C813D81232B59F7FC011082E8CFE3
:1021200080E0E7CFEF92FF920F931F93CF93DF935F
:102130006115710541F480E0DF91CF911F910F91FE
:10214000FF90EF90089541155105B1F07B01EC012E
:102150000C811D81040F151FB8010E946A1088238D
:1021600051F3288139818C819D81B701820F931FA2
:102170000E944B2A1D830C8381E0DECFCF93DF9337
:10218000EC01FB0101900020E9F73197AF01461BFC
:10219000570B0E949210811103C0CE010E94501073
:1021A000CE01DF91CF910895CF93DF93EC01FB0136
:1021B00044815581608171810E949210811103C018
:1021C000CE010E945010CE01DF91CF910895EF9281
:1021D000FF920F931F93CF93DF93EC017B018A0152
:1021E000BA010E946A1081110BC0CE010E945010EA
:1021F000CE01DF91CF911F910F91FF90EF90089545
:102200001D830C83B701888199810E944B2AF0CFEE
:10221000FB0101900020E9F73197AF01461B570BF6
:102220000C94E7100F931F93CF93DF93CDB7DEB7D6
:1022300062970FB6F894DEBF0FBECDBF8C01CB0105
:10224000F8011182108213821282158214824AE0F0
:10225000BE016F5F7F4F0E949F24BE016F5F7F4F63
:10226000C8010E94081162960FB6F894DEBF0FBE37
:10227000CDBFDF91CF911F910F910895FB01DC013C
:1022800011961C921E9213961C921E9212971596EE
:102290001C921E9214978617970749F060817181EE
:1022A0006115710521F0448155810C94E710089562
:1022B000FC01118210821382128215821482FB01AA
:1022C00001900020E9F73197AF01461B570B0C94A2
:1022D000E710CF93DF93CDB7DEB7C85CD1090FB657
:1022E000F894DEBF0FBECDBF9E012F523F4FC353A8
:1022F000DF4F48815981CD5CD04068EC70E0CE0161
:1023000001960E9404250E94EB02BE016F5F7F4F81
:102310008091CB079091CC070E94060D41E070E0C0
:1023200060E0C153DF4F88819981CF5CD0400E942B
:102330004C0DC853DF4F0FB6F894DEBF0FBECDBFB4
:10234000DF91CF9108958FE291E09F938F938BE37C
:1023500091E09F938F938EE48F9380E28F9389E631
:1023600095E09F938F930E9469112DB73EB7285F28
:102370003F4F0FB6F8943EBF0FBE2DBF61EA71E02C
:10238000892BC1F48AE698E00E944A0D67E475E063
:102390008AE698E00E94B00561EE72E08AE698E075
:1023A0000E944A0D6BE371E08AE698E00E94060DF8
:1023B00081E008958AE698E00E944A0D64E575E0A0
:1023C0008AE698E00E94B00561EE72E08AE698E045
:1023D0000E944A0D6BE371E08AE698E00E94060DC8
:1023E00068EE73E080E090E00E9440040E94EB02FF
:1023F00080E00895EF92FF920F931F93CF93DF93A6
:10240000EC01162F072FF42EE52E61EA71E08AE623
:1024100098E00E944A0D68ED74E08AE698E00E9418
:10242000B00561EE72E08AE698E00E944A0D612FE5
:10243000702F8AE698E00E94060DE0E1F1E083E06B
:1024400090E0268137812F3F3F4F31F0019732973F
:102450008F3F9807B1F78FEF8C878F3F69F1EF922D
:10246000FF920F931F931F928F9383E18F9388E8BE
:102470008F938BEB94E09F938F930E9469112DB7FC
:102480003EB7265F3F4F0FB6F8943EBF0FBE2DBF3D
:10249000892BF1F48C8590E0FC01EE0FFF1FE05FCB
:1024A000FE4F9183808381E090E0DF91CF911F9177
:1024B0000F91FF90EF90089561EA71E08AE698E04D
:1024C0000E944A0D67EA74E08AE698E00E94380D9F
:1024D00090E080E0EACFCF92DF92EF92FF920F93ED
:1024E0001F93CF93DF93CDB7DEB760970FB6F89405
:1024F000DEBF0FBECDBF7C01FB016A0185811F924B
:102500008F9384811F928F9383811F928F938281F7
:102510001F928F9384E291E09F938F938E010F5FC0
:102520001F4F1F930F930E94E124A601B801C7011A
:102530000E94FA110FB6F894DEBF0FBECDBF6096B1
:102540000FB6F894DEBF0FBECDBFDF91CF911F91C4
:102550000F91FF90EF90DF90CF9008950C94FA11B7
:10256000CF93DF93FC0124852F3FA1F1EC0161EAB9
:1025700071E08AE698E00E944A0D60EA71E08AE61E
:1025800098E00E94B00561EE72E08AE698E00E9451
:102590004A0D8C850E94DF0C8C851F928F938FE0F3
:1025A0008F9380EA8F9381E991E09F938F930E94AC
:1025B0006911EC85F0E0EE0FFF1FE05FFE4F8FEF3B
:1025C0009FEF918380838C870F900F900F900F90D7
:1025D0000F900F90DF91CF910895CF92DF92EF92FD
:1025E000FF920F931F93CF93DF93CDB7DEB764971E
:1025F0000FB6F894DEBF0FBECDBF6C010E946A24F7
:102600008C018091F808843018F401151105C1F48B
:1026100081E090E09093EF088093EE0810E000E0F6
:10262000C80164960FB6F894DEBF0FBECDBFDF9130
:10263000CF911F910F91FF90EF90DF90CF90089571
:1026400098012E5F3F4F3F932F931F928F938CE102
:1026500095E09F938F939E012F5F3F4F79013F93AA
:102660002F930E94E124B7018091CB079091CC0772
:102670000E94060D40E066EB71E088EE93E00E9458
:102680004C0D0FB6F894DEBF0FBECDBF059709F015
:1026900064C0F12CE12C8091CB079091CC07DC0138
:1026A000ED91FC91208131810E151F0551F0F6014D
:1026B000EE0DFF1D6491F9010995FFEFEF1AFF0A76
:1026C000EACF6DE0F90109958091CB079091CC0795
:1026D000DC01ED91FC910190F081E02D6AE009951B
:1026E00041E070E060E080ED97E00E944C0D0397C0
:1026F00009F496CF61EA71E08AE698E00E944A0DFB
:1027000066EE74E08AE698E00E94380D81E090E081
:102710009093EF088093EE0861EA71E08AE698E012
:102720000E944A0D6DE275E08AE698E00E94B005CD
:1027300061EE72E08AE698E00E944A0D8091F80806
:102740000E94DF0C60EA7FE080E090E00E9440049D
:102750008CEE98E00E94B01261CF61EA71E08AE6E7
:1027600098E00E944A0D61E075E0CCCFAF92BF9235
:10277000CF92DF92EF92FF920F931F93CF93DF934D
:102780005C016B017A01E90118820E94EB02B5013C
:102790008091CB079091CC070E94380D41E0B601A3
:1027A00088EE93E00E944C0D8530910509F058C0E9
:1027B0008091BC089091BD089093C1088093C00897
:1027C0004091BA085091BB084F5F5F4F70E060E0E6
:1027D0000E94442A41E0B70184EF91E00E944C0D31
:1027E000059781F5A80141505109F701019000209A
:1027F000E9F73197EE19FF096091BC087091BD08A7
:102800008091C0089091C108861B970B8E1B9F0B6F
:102810004817590708F0AC01CE010E94522A41E046
:1028200070E060E080ED97E00E944C0D81E0DF9168
:10283000CF911F910F91FF90EF90DF90CF90BF90BD
:10284000AF90089561EA71E08AE698E00E944A0D2F
:1028500063E372E08AE698E00E94380D80E0E7CFFB
:102860000597E0F361EA71E08AE698E00E944A0D7C
:1028700065E472E0EFCF4F925F926F927F928F92FA
:102880009F92AF92BF92CF92DF92EF92FF920F93FF
:102890001F93CF93DF93CDB7DEB74C016B015A0185
:1028A00039014DB65EB6CB010E946A2401962DB760
:1028B0003EB7281B390B0FB6F8943EBF0FBE2DBF95
:1028C0008DB79EB701967C01B6010E946324C501B5
:1028D0000E946A2401962DB73EB7281B390B0FB60C
:1028E000F8943EBF0FBE2DBF8DB79EB701966C0109
:1028F000B5010E9463249301A601B701C4010E949F
:10290000B6130FB6F8945EBE0FBE4DBEDF91CF91E9
:102910001F910F91FF90EF90DF90CF90BF90AF90FD
:102920009F908F907F906F905F904F9008950F933E
:102930001F93CF93DF93CDB7DEB72A970FB6F894E6
:10294000DEBF0FBECDBF0AE010E09E012F5F3F4FFC
:102950004BE152E06EE172E086E292E00E943B14AD
:102960008823C1F0CE0101960E9415249C012250BB
:1029700031092330310580F0059781F080E02A96F7
:102980000FB6F894DEBF0FBECDBFDF91CF911F9180
:102990000F9108958FEFF3CF81E0F1CF83E0EFCF78
:1029A000CF92DF92EF92FF920F931F93CF93DF931B
:1029B000CDB7DEB76E970FB6F894DEBF0FBECDBFB2
:1029C000FC0184858F3FD1F17F010E94E507892BAF
:1029D00021F5D7011C968C911F928F938CEB91E07F
:1029E0009F938F93FE0131966F01FF93EF930E94A7
:1029F000E1240AE010E09E012B5E3F4F4FE951E0D9
:102A0000B6018FEA91E00E94B6130F900F900F90DD
:102A10000F900F900F90882311F094E010C0D70111
:102A20001C96EC911C97F0E0EE0FFF1FE05FFE4F4D
:102A30008FEF9FEF918380831C968C9390E081E0D1
:102A4000943009F080E06E960FB6F894DEBF0FBEAA
:102A5000CDBFDF91CF911F910F91FF90EF90DF904D
:102A6000CF9008952F923F924F925F926F927F92F4
:102A70008F929F92AF92BF92CF92DF92EF92FF928E
:102A80000F931F93CF93DF93CDB7DEB7AA970FB6FF
:102A9000F894DEBF0FBECDBF9AA789A788EE482E57
:102AA00083E0582E612C712CCC24C394D12C0E942D
:102AB000190E68EE73E080E090E00E9440040E94EE
:102AC0009714813009F452C068EB71E08AE698E00F
:102AD0000E94060D21E02093BD070E94A3110E94D1
:102AE00073044B015C010E9497148130C1F00E9475
:102AF0007304681979098A099B0960317742810555
:102B0000910568F464EF71E080E090E00E94400479
:102B100062EF72E08AE698E00E944A0DE4CF0E94DC
:102B200097148130E9F060ED71E08AE698E00E9448
:102B3000060DFFEFCF1ADF0A28EE420E23E0521EE9
:102B4000611C711C84E0C816D10409F0B0CF63EB9E
:102B500072E08AE698E00E94060D0FEF1FEF4EC16B
:102B60006AEE71E08AE698E00E94060D8CEE98E02D
:102B70000E94B01280E1E7ECF2E0DE0111960190D4
:102B80000D928A95E1F76CEF71E08AE698E00E9479
:102B9000060D40E550E0BE016F5F7F4F8CEE98E080
:102BA0000E94AE12892B09F48CC164E172E08AE6BE
:102BB00098E00E94060D6BE272E0CE0141960E9401
:102BC000581169A57AA5CE0141960E94D41066E4F9
:102BD00072E00E94BE10BC01CE0183960E943E119D
:102BE000CE0141960E946210BE016D5D7F4F8CEE5A
:102BF00098E00E941D0D83E794E00E94ED1287E4A7
:102C000094E00E94ED1285E394E00E94ED128CEEB8
:102C100098E00E94DB0C65EB71E0CE014D960E94BE
:102C200058110E9473044B015C018CEE98E00E94E5
:102C3000D014882339F18CEE98E00E94BC09892BCE
:102C400081F08CEE98E00E945F0F898B1A8A41E038
:102C500050E0BE016F5E7F4FCE014D960E949210F4
:102C6000E0CF0E947304681979098A099B096938C1
:102C7000734181059105C8F26DE572E08AE698E03E
:102C80000E94060D8CEE98E00E94B01262E772E09E
:102C90008AE698E00E94060D64E872E0CE01419653
:102CA0000E94581189A19AA1892B09F4C1C00D8DE8
:102CB0001E8D69897A89C8010E94612A009709F4EA
:102CC000B7C0801B910B7C0128E0E20EF11CCE0105
:102CD00041960E946210570164EE72E0CE01419667
:102CE0000E94581189A19AA1E816F90670F42D8C5A
:102CF0003E8C69897A89C1018E0D9F1D0E94612ACF
:102D00008C0102191309892B11F40FEF1FEFCE016B
:102D100041960E94621089E0E816F1040CF4C9C0E3
:102D20000F3F100709F4C5C00E151F0510F4580118
:102D3000870165EB71E0CE0147960E945811E9A02A
:102D4000FAA0AE14BF04E0F40E151F0508F47801D4
:102D5000ED8DFE8DEE0DFF1D108110826D8D7E8D2F
:102D60006A0D7B1DCE0147966115710509F463C09C
:102D70000E9408118D8D9E8DE80EF91EF7011083BB
:102D8000CF88D88CC114D10439F00B8D1C8D7601FD
:102D90000115110509F053C06DE872E0CE014196AE
:102DA0000E94581169A57AA5CE0141960E94D410BF
:102DB00060EE72E00E94BE10BE01695E7F4F0E940D
:102DC000D410BC018AE698E00E941D0DCE01419608
:102DD0000E9462108F89988D009709F466C00E9446
:102DE00033248B01CE0147960E946210CE014D968E
:102DF0000E946210CE0183960E946210C801AA96BA
:102E00000FB6F894DEBF0FBECDBFDF91CF911F91FB
:102E10000F91FF90EF90DF90CF90BF90AF909F9079
:102E20008F907F906F905F904F903F902F9008957C
:102E30008FEF9FEF48CF0E9450109CCF7501570134
:102E4000FFEFAF1ABF0AF7018081082E000C990B23
:102E50000E945A24892B91F7015011090C0D1D1D58
:102E6000F8018081082E000C990B0E945A24892BAE
:102E700031F00E151F0518F001501109F1CFA8010E
:102E80004F5F5F4F4E195F095C8F4B8FCE14DF048D
:102E900020F4B701C6010E943B2AEF89F88D8B8D83
:102EA0009C8DE80FF91F108277CF60E070E0CB01B6
:102EB00098CFCE014D960E946210CE0183960E945B
:102EC0006210B601CE0141960E94121165E972E0CE
:102ED000CE0147960E945811BE016F5E7F4FCE0112
:102EE00047960E94D4106EE972E00E94BE10BC01A9
:102EF0008AE698E00E941D0DCE0147960E9462105E
:102F0000CE0141960E946210C301B2010E944004AA
:102F100010CE85ED8093BC0080912E0790912F07F5
:102F2000A0913007B09131070796A11DB11D23E094
:102F3000B695A795979587952A95D1F72091BC00CE
:102F400024FD03C010922C07089540912E07509144
:102F50002F076091300770913107452B462B472B87
:102F600069F30097A105B10541F02AE22A95F1F72E
:102F700000C00197A109B109E1CF80912D070C9400
:102F8000390AEF92FF920F931F93CF93DF93CDB740
:102F9000DEB7E3970FB6F894DEBF0FBECDBF8C014E
:102FA0007B018CEE98E00E94B01280E1E7ECF2E049
:102FB000DE01529601900D928A95E1F7C8010E94B8
:102FC000F40CB801CE0182960E94121167ED72E0F6
:102FD000CE0101960E945811BE016E5D7F4FCE0159
:102FE00001960E94D41063EE72E00E94BE10BC01F4
:102FF000CE018E960E943E11CE0101960E94621073
:10300000CE0182960E946210BE01625D7F4F8AE609
:1030100098E00E941D0D40E550E0BE016E5E7F4FBE
:103020008CEE98E00E94AE12892B09F485C066EE02
:1030300072E08AE698E00E94060D64EF72E0CE012D
:1030400001960E945811B701CE0101960E94D4103A
:1030500060E173E00E94BE10BC01CE0188960E9420
:103060003E11CE0101960E946210BE01685D7F4F45
:103070008CEE98E00E941D0D8EE091E00E94ED1212
:1030800082EE90E00E94ED128BEC90E00E94ED1237
:103090008CEA90E00E94ED126FE173E08CEE98E014
:1030A0000E944A0D8AA99BA91BA21AA21DA21CA2BA
:1030B0001FA21EA24AE0BE016F5F7F4F0E94C7247D
:1030C000BE016F5F7F4FCE0182960E940811BE0144
:1030D0006E5D7F4F8CEE98E00E941D0DCE018296B2
:1030E0000E9462108CEE98E00E94DB0CBE01625DD3
:1030F0007F4F8CEE98E00E941D0D0E947304609338
:103100009A0770939B0780939C0790939D07CE012D
:1031100088960E946210CE018E960E946210E396FD
:103120000FB6F894DEBF0FBECDBFDF91CF911F91D8
:103130000F91FF90EF90089560E373E08AE698E0C6
:103140000E94060DE8CF1F920F920FB60F92112426
:103150002F933F938F939F93AF93BF938091A70734
:103160009091A807A091A907B091AA073091A6074E
:1031700023E0230F2D3758F50196A11DB11D209393
:10318000A6078093A7079093A807A093A907B093D9
:10319000AA078091AB079091AC07A091AD07B091C1
:1031A000AE070196A11DB11D8093AB079093AC07AC
:1031B000A093AD07B093AE07BF91AF919F918F9150
:1031C0003F912F910F900FBE0F901F90189526E8FA
:1031D000230F0296A11DB11DD2CF1F920F920FB6E1
:1031E0000F9211248F939F938091E1009091E100C1
:1031F000937F9093E10083FF0FC01092E90091E06C
:103200009093EB001092EC0092E39093ED001092FB
:10321000BC0798E09093F00082FF22C093E0909367
:10322000E9009091F200992319F09AE39093E80055
:1032300090915907992341F090915907915090939B
:103240005907911101C05D9A9091BB07992341F0F4
:103250009091BB0791509093BB07911101C0289AA0
:1032600084FF18C08091E2008E7E81608093E2002E
:103270008091E1008F7E8093E10080915A078E7EDD
:10328000806180935A079F918F910F900FBE0F908E
:103290001F90189580FFF7CF8091E2008E7E8061AD
:1032A0008093E2008091E1008E7E8093E100809126
:1032B0005A078E7E8160E5CF1F920F920FB60F9254
:1032C0001124CF92DF92EF92FF920F931F932F93CF
:1032D0003F934F935F936F937F938F939F93AF939E
:1032E000BF93EF93FF93CF93DF93CDB7DEB76C9788
:1032F000DEBFCDBF1092E9008091E80083FF25C0BA
:1033000068E0CE0145960E94040582EF8093E800B4
:103310008D8987FF39C09091E80090FFFCCF982FEE
:10332000907609F034C19E894F89588D2F89F88C89
:10333000911131C0803861F580915B078093F10075
:103340001092F1008EEF8093E8006C960FB6F8941F
:10335000DEBF0FBECDBFDF91CF91FF91EF91BF9147
:10336000AF919F918F917F916F915F914F913F911D
:103370002F911F910F91FF90EF90DF90CF900F90C2
:103380000FBE0F901F9018959EEF9093E800C7CF47
:103390001092F100D5CF913059F48111D3CF413043
:1033A000510581F680915B078D7F80935B07CACFC3
:1033B000933049F48111C6CF4130510519F68091FF
:1033C0005B078260F2CF953041F48091E80080FF86
:1033D000FCCF20682093E300B5CF963009F0A9C058
:1033E0000B8D1C8D22E01092E9001092570710926D
:1033F0005607F2122EC010925507109254070E94E1
:10340000D3041F8299E09983FA8291E09E8390EA27
:1034100098879AEF99872091560730915707275F31
:103420003F4F3C832B838D831092E9001092570706
:1034300010925607109355070093540749E050E047
:10344000BE016F5F7F4F80E00E94AD040E94D304F5
:1034500079CF10935507009354070E944303DC0172
:1034600012960D911C910115110509F451C1D80155
:10347000ED91FC910480F581E02DBE016B5E7F4FE4
:10348000C8010995009709F03EC1F8010085118532
:10349000EACFF3E0FF120EC08F89882309F440C001
:1034A000823061F440E860E186EC92E00E94051D04
:1034B000811148CF81E28093EB0047CF813029F41E
:1034C00040E86BE08AEB92E0F1CF833099F70E94FD
:1034D0004303DC011296ED90FC908E010F5F1F4FAD
:1034E0006801E114F10479F0D701ED91FC910680B7
:1034F000F781E02DB801C7010995080F111DF701EB
:10350000E084F184EECFD8011C92F60101900020F6
:10351000E9F73197BF016C197D0940E0C601C6CFBC
:1035200064EA72E0FB01449150E080E80E94AD043F
:1035300009CF973009F4BECF983021F481E0809311
:10354000F10000CF993009F0FDCE837009F0B2CFC1
:10355000E9E2F1E081E031E096E32191222371F08C
:103560008093E9003093EB00DF0111972C912093B9
:10357000EC009093ED008F5F873079F78EE78093B2
:10358000EA001092EA008F898093BC07DBCE8B8D16
:103590009C8D1092E9001092570710925607909355
:1035A000550780935407898D811192C08E899D891A
:1035B000913A49F4813209F07DCF47E050E064E070
:1035C00071E080E0B3CF913209F074CF833269F4B7
:1035D0008F89988DB0E0A0E0809300019093010165
:1035E000A0930201B0930301ADCE803269F48091C3
:1035F000E80082FFFCCF67E084E091E00E940405D0
:103600008BEF8093E8009ECE823209F09BCE8F89AB
:1036100080930B01EEEFFFE7859194918B3F9C4DDA
:1036200051F1E0E0F8E08091040190910501A09152
:103630000601B0910701803B9440A105B105F1F46A
:1036400080910B0180FD1AC0EE3F8AE0F80789F5F2
:1036500087E797E791838083809160008093580784
:1036600088E19BE00FB6F894A895809360000FBEA8
:103670009093600067CEEEEFFAE0D5CF8081918124
:103680008737974709F05ECEA895809160008861E2
:10369000809360008091580780936000EE3F2AE09D
:1036A000F20789F08091FE0A9091FF0A918380834E
:1036B00049CE808191818737980751F29093FF0A14
:1036C0008093FE0AC5CF1092FF0A1092FE0A3ACEEE
:1036D0000E944303DC0112960D911C910115110506
:1036E00009F4E8CED801ED91FC910190F081E02D34
:1036F000BE016B5E7F4FC8010995811123CEF80191
:1037000000851185EBCF181619060CF41BCED2CE0E
:10371000F1E0FF12BECE68EA72E004CF1F920F9272
:103720000FB60F9211242F933F934F935F936F9394
:103730007F938F939F93AF93BF93EF93FF938DEC02
:1037400097E00E945206FF91EF91BF91AF919F9138
:103750008F917F916F915F914F913F912F910F903A
:103760000FBE0F901F9018951F920F920FB60F92D9
:1037700011242F938F939F93EF93FF93E091DD0795
:10378000F091DE078081E091E307F091E40782FD8C
:103790001BC090818091E6078F5F8F732091E707B0
:1037A000821741F0E091E607F0E0E353F84F958F80
:1037B0008093E607FF91EF919F918F912F910F904A
:1037C0000FBE0F901F9018958081F4CF1F920F921B
:1037D0000FB60F9211242F933F934F935F936F93E4
:1037E0007F938F939F93AF93BF93EF93FF938091BA
:1037F000B900887F803609F44AC0F0F5883209F4B0
:10380000A7C018F5803109F49BC0B8F4882309F4E7
:10381000F9C0883009F494C0FF91EF91BF91AF9146
:103820009F918F917F916F915F914F913F912F91D8
:103830000F900FBE0F901F901895883109F488C023
:10384000803251F780932A0714C0803409F49DC058
:1038500040F48033B9F38833F9F680932A0785EC76
:10386000B0C0803509F485C0883509F496C0883425
:1038700099F60E948917D0CF883909F48CC038F5A1
:10388000883729F050F4883611F0803729F683E024
:1038900080932C071092050757C0883809F47BC025
:1038A000803919F0803809F0B7CF80910507803250
:1038B00008F071C0E091050781E08E0F8093050745
:1038C0008091BB00F0E0EB51F94F80833DC0803B1D
:1038D00039F0E0F4803A09F479C0883A09F09CCFD5
:1038E00084E080932C071092E4061092E306E091A6
:1038F000C507F091C60709958091E30681110FC0B5
:1039000081E08093E3061092C30609C0803C09F46D
:10391000A6CF883C09F4A3CF883B09F07DCFE09186
:10392000E40681E08E0F8093E406F0E0ED53F94F5A
:1039300080818093BB009091E4068091E30629C0CA
:10394000809107078093BB0085EC8093BC0064CF17
:103950009091290780912807981758F5E091290739
:1039600081E08E0F80932907F0E0E85FF84F8081B7
:10397000E9CFE091290781E08E0F8093290780919C
:10398000BB00F0E0E85FF84F8083909129078091B9
:1039900028079817C8F285E8D8CFE091290781E079
:1039A0008E0F809329078091BB00F0E0E85FF84F0D
:1039B000808380912B0781115CCF81E08093060783
:1039C00084EA8093BC0010922C0726CF85EC80936C
:1039D000BC0010922C0780910507803230F4E091F2
:1039E0000507F0E0EB51F94F10826091050770E098
:1039F000E091C307F091C40785EE96E00995109217
:103A000005070ACF10922A0734CFEF92FF920F9347
:103A10001F93CF93DF93F82E192FE62E042F81E00A
:103A2000860F880F0E947F0483E00E947F04CF2DC1
:103A3000D12FEC0EFD2EF11CCE15DF05B9F007FFDE
:103A400013C0FE0184910E947F04182F80E00E9421
:103A50007F04812321968111EFCFDF91CF911F91B8
:103A60000F91FF90EF9008958881EDCF81E0F5CF21
:103A7000CF92DF92EF92FF920F931F93CF93DF933A
:103A8000EDECF7E01382128288EEC82E83E0D82E88
:103A9000E12CF12CC482D582E682F78285E491E0A4
:103AA000918380838DEC90E0958784878CEC90E007
:103AB0009787868788EC90E0918B808B89EC90E0EB
:103AC000938B828B8AEC90E0958B848B8EEC90E0CC
:103AD000978B868B118E128E138E148EEAE6F8E089
:103AE00013821282C482D582E682F78287E591E052
:103AF000918380838FEF9FEF95878487E2ECF8E0D6
:103B0000C9E9D1E0D183C083128213821482158265
:103B10000AEB18E080E290E0F8019183808381E273
:103B200090E00E945928F801938382839C01205ED3
:103B30003F4F358324839783868321E2FC011192D2
:103B40002A95E9F7E8ECF8E0D183C083128213826A
:103B500014821582EEECF8E0D183C08312821382C6
:103B600014821582E4EDF8E0D183C08312821382BF
:103B700014821582EAEDF8E0D183C08312821382A9
:103B800014821582E0EEF8E013821282C482D5829C
:103B9000E682F78289E691E091838083E9EFF8E09D
:103BA000D183C0831282138214821582ECEEF8E076
:103BB00013821282C482D582E682F7828BE791E07B
:103BC000918380838FEF8487DF91CF911F910F9135
:103BD000FF90EF90DF90CF900895CF93DF93CDB714
:103BE000DEB7A6970FB6F894DEBF0FBECDBF7894B0
:103BF00084B5826084BD84B5816084BD85B58260F2
:103C000085BD85B5816085BD80916E0081608093A2
:103C10006E0010928100809181008260809381000B
:103C2000809181008160809381008091800081601B
:103C300080938000809191008260809391008091B8
:103C400091008160809391008091900081608093C9
:103C500090008091C10084608093C1008091C10078
:103C600082608093C1008091C10081608093C10017
:103C70008091C30081608093C3008091C000826006
:103C80008093C0008091C20081608093C2008091C7
:103C90007A00846080937A0080917A0082608093B9
:103CA0007A0080917A00816080937A0080917A0016
:103CB000806880937A001092BC0710925B07109284
:103CC0005A078091D70081608093D70080EA809363
:103CD000D80089B5806189BD89B5826089BD09B484
:103CE00000FEFDCF61E070E080E090E00E944004C3
:103CF0008091D8008F7C80618093D8008091E00013
:103D0000807F8093E0008091E1008E7E8093E100CF
:103D10008DE08093E200559A209A8FEF9FEF909369
:103D200077088093760862E473E08AE698E00E9460
:103D30004A0DE091DD07F091DE0782E08083E0919B
:103D4000D907F091DA071082E091DB07F091DC07E8
:103D500080E180831092E507E091E107F091E207AE
:103D600086E08083E091DF07F091E0078081806149
:103D70008083E091DF07F091E00780818860808395
:103D8000E091DF07F091E007808180688083E09117
:103D9000DF07F091E00780818F7D808361EA71E029
:103DA0008AE698E00E944A0D67E473E08AE698E0AC
:103DB0000E94380D8DEC97E09093CC078093CB0751
:103DC00005E010E084E493E00E94040E892B09F4DE
:103DD000F3C468EE73E080E090E00E94400401507C
:103DE000110981F761EA71E08AE698E00E944A0DC4
:103DF00067E273E08AE698E00E94380D68E873E1B4
:103E000080E090E00FC561EA71E08AE698E00E94E8
:103E10004A0D6EEE72E08AE698E00E94B00561EE0F
:103E200072E08AE698E00E944A0D6CE577E08AE647
:103E300098E00E94060D0E94971411E08F3F39F41C
:103E400068E473E08AE698E00E94060DFFCF809157
:103E5000880790918907019711F16EE573E08AE672
:103E600098E00E944A0D6BE371E08AE698E00E94B8
:103E7000060D1093BD070E94A31181110DC082E0B1
:103E800090E0909389078093880762E873E08AE660
:103E900098E00E94060DDBCF81E090E0F2CF6BE767
:103EA00073E08AE698E00E944A0D1092620700E2F1
:103EB00010E022E637E04FE553E061E673E08AE682
:103EC00093E00E943B1462E677E08AE698E00E9465
:103ED000060D89E991E09E8B8D8B1F8A188E198EB5
:103EE0001A8E8091BD0704E110E09E012F5F3F4FC5
:103EF000813009F026C44CE853E06EE873E087E9AE
:103F000093E00E943B148823A1F162EF72E0CE019E
:103F100001960E9473240E9415248093820762EF09
:103F200072E090E080E00E9473240E941524809348
:103F3000830762EF72E090E080E00E9473240E94A9
:103F400015248093840762EF72E090E080E00E9485
:103F500073240E9415248093850780918207909195
:103F60008307A0918407B09185078F8B988FA98FC5
:103F7000BA8F6AEA73E08AE698E00E944A0D6AE620
:103F800078E0CE0145960E94910C8AE698E00E9466
:103F9000DB0C0AE010E09E012F5F3F4F40EA53E048
:103FA00063EA73E086EA93E00E943B148981082E5D
:103FB000000C990BC09710E000E00A9740F4CE0186
:103FC00001960E94152400271127081B190B67EB87
:103FD00073E08AE698E00E944A0DB801110F880B41
:103FE000990B0E945F0C6FEC73E08AE698E00E94E8
:103FF000060D60ED77E080E090E00E9440040E94B2
:10400000220A8091860790918707009711F00E94FD
:10401000F52886E090E00E9459288C0188E6F80196
:10402000808380EE98E092838183138280E290E027
:104030009583848310938707009386070E94220A42
:1040400081E0F8018383C8010E945A0A8FEF9FEF35
:10405000909377088093760861E086E00E94C80319
:1040600061E088E00E94C80361E089E00E94C80323
:1040700061E08AE00E94C80361E084E00E94C80316
:1040800060E08CE00E94C8038AE1882E99249A940B
:10409000A92CB92C90E1C92EDD24DA94ED2CFD2C4D
:1040A00020E0622E20E0722E60ED77E080E090E06C
:1040B0000E94400464ED73E08AE698E00E94060DD9
:1040C00082E10E94F9039C01990F440B550B2E5479
:1040D000324041095109A4E6B0E00E940228A5013E
:1040E00094010E94E32789013093A5072093A40738
:1040F00064E170E080E090E00E94400417FF04C09B
:104100001092A5071092A40783E10E94F9039C0175
:10411000990F440B550B2855324041095109A4E62B
:10412000B0E00E940228A70196010E94E3278901BE
:104130003093A3072093A20764E170E080E090E051
:104140000E94400417FF04C01092A3071092A20718
:1041500084E10E94F9039C01990F440B550B2855EB
:10416000324041095109A4E6B0E00E940228A701AB
:1041700096010E94E32789013093A1072093A007AD
:1041800064E170E080E090E00E94400417FF04C00A
:104190001092A1071092A00785E10E94F9039C01EB
:1041A000990F440B550B2855324041095109A4E69B
:1041B000B0E00E940228A70196010E94E32789012E
:1041C00030939F0720939E0764E170E080E090E0C9
:1041D0000E94400417FF04C010929F0710929E0790
:1041E0008091A4079091A5070E94F40C8091A207EA
:1041F0009091A3070E94F40C8091A0079091A107D1
:104200000E94F40C80919E0790919F070E94F40CED
:104210000E94730400919A0710919B0720919C07BC
:1042200030919D07601B710B820B930B61317742BC
:104230008105910508F491C069ED73E08AE698E084
:104240000E94060D67EE73E0CE0101960E945811A0
:10425000BE016F5F7F4F8091A4079091A5070E94D8
:10426000C117CE0101960E94621066EF73E0CE0185
:1042700001960E945811BE016F5F7F4F8091A20787
:104280009091A3070E94C117CE0101960E9462106F
:1042900065E074E0CE0101960E945811BE016F5F87
:1042A0007F4F80919E0790919F070E94C117CE017A
:1042B00001960E94621064EF71E080E090E00E943D
:1042C000400468E174E0CE0101960E945811CE01CD
:1042D00001960E9432159093990780939807CE011A
:1042E00001960E94621064EF71E080E090E00E940D
:1042F000400463E274E0CE0101960E945811CE01A1
:1043000001960E9432159093970780939607CE01ED
:1043100001960E94621064EF71E080E090E00E94DC
:1043200040046DE274E0CE0101960E945811CE0166
:1043300001960E9432159093950780939407CE01C1
:1043400001960E9462100E94730460939A07709312
:104350009B0780939C0790939D078091980790916D
:1043600099078F3F980709F0F3C16FE374E08AE67D
:1043700098E00E944A0D80919807909199070E94B9
:10438000F40C80919607909197078F3F980709F05A
:10439000E4C168E674E08AE698E00E944A0D8091E4
:1043A0009607909197070E94F40C80919407909142
:1043B00095078F3F980709F0D5C160E974E08AE658
:1043C00098E00E944A0D80919407909195070E9471
:1043D000F40C60EC74E08AE698E00E94060D6EEC46
:1043E00074E08AE698E00E944A0D80918C079091D3
:1043F0008D070E94F40C6AED74E08AE698E00E9452
:104400004A0D80919207909193070E94F40C65EEFB
:1044100074E08AE698E00E944A0D80918A079091A4
:104420008B070E94F40C68EF74E08AE698E00E9423
:104430004A0D0E94730400918E0710918F072091FE
:10444000900730919107AB01BC01401B510B620BEF
:10445000730B2AE08AE698E00E94130C8AE698E043
:104460000E94DB0C60E175E08AE698E00E944A0D4C
:104470002AE040EC57E269E070E08AE698E00E94AA
:10448000130C8AE698E00E94DB0C0E9473040091F2
:104490008E0710918F072091900730919107601B34
:1044A000710B820B930B613C77428940910568F157
:1044B00000918C0710918D070130110531F5209185
:1044C000A4073091A50780918A0790918B07281740
:1044D0003907DCF464E275E08AE698E00E94060D94
:1044E000109393070093920763E274E0CE01019664
:1044F0000E945811BE016F5F7F4F81E090E00E94E3
:10450000C117CE0101960E9462108091920790918E
:104510009307019709F077C069E375E08AE698E0B0
:104520000E94060D80919207909193070E94F40CCF
:1045300066E575E08AE698E00E94060D61E086E097
:104540000E94570362E370E080E090E00E94400424
:1045500061E084E00E94570362E370E080E090E055
:104560000E94400465E675E08AE698E00E94060D28
:1045700060E27EE480E090E00E9440046FE775E036
:104580008AE698E00E94060D60E086E00E945703EC
:1045900062E370E080E090E00E94400460E084E02C
:1045A0000E94570362E370E080E090E00E944004C4
:1045B0000E94730460938E0770938F078093900717
:1045C0009093910710929307109292071092970779
:1045D000109296076FE875E08AE698E00E94060D53
:1045E00063E274E0CE0101960E945811BE016F5F34
:1045F0007F4F80919207909193070E94C117CE013F
:1046000001960E94621080919E0790919F078536C7
:1046100091050CF4BEC06CEA75E08AE698E00E9451
:10462000060D0E94730400910C0110910D01209160
:104630000E0130910F01601B710B820B930B613ADD
:1046400076488140910508F4A4C067ED75E0CE017D
:1046500081960E9458118CEE98E00E94B01280E181
:10466000ECE3F6E0DE01119601900D928A95E1F7F8
:1046700040E550E0BE016F5F7F4F8CEE98E00E94F6
:10468000AE12892B09F491C066EE72E08AE698E0DA
:104690000E94060D60ED77E080E090E00E9440040B
:1046A00068EE75E0CE0145960E945811BE016F5D1F
:1046B0007F4FCE0145960E94D41067EF75E00E94AF
:1046C000BE10BC01CE014B960E943E11CE01459614
:1046D0000E946210BE01655E7F4F8CEE98E00E94E2
:1046E0001D0D66E376E08CEE98E00E94060D6CE40A
:1046F00076E08CEE98E00E94060D8CEE98E00E9429
:10470000DB0C0E94730460930C0170930D01809385
:104710000E0190930F018CEE98E00E94D014882334
:1047200031F18CEE98E00E94BC09892BA1F38CEE4C
:1047300098E00E945F0F682F8AE698E00E94640765
:10474000EACF44E753E066E773E082E893E0D9CB31
:1047500090938D0780938C0714CE9093930780934A
:10476000920723CE90938B0780938A0732CE6EE513
:1047700076E08AE698E00E94060D8CEE98E00E94B2
:10478000B012CE014B960E946210CE0181960E941B
:1047900062106114710409F487CC0E943E068823DC
:1047A00009F482CC0E9400007FCC60E373E08AE6CB
:1047B00098E00E94060DE9CF0E94190E10925C0746
:1047C00006E010E02CE537E047ED52E06AED72E0DC
:1047D00087EE92E00E943B1480915C078153823007
:1047E00028F480915D078E3209F40DCB61EA71E007
:1047F0008AE698E00E944A0D69E073E08AE698E054
:104800000E94B00561EE72E08AE698E00E944A0DCF
:104810006CE577E08AE698E00E94060D60EA7FE0AA
:1048200080E090E00E94400406CBFC018827992795
:10483000E89421912032E9F3293010F02E30C8F3AA
:104840002B3241F02D3239F4689404C00E94BF2409
:10485000820F911D219120532A30C0F31EF49095B0
:1048600081959F4F08951F93FC0199278827BC01CC
:10487000E89411911032E9F3193010F01E30C8F3AA
:104880001B3251F01D3249F4689406C00E94AA24DC
:10489000610F711D811D911D119110531A30B0F3DC
:1048A0003EF490958095709561957F4F8F4F9F4F07
:1048B0001F91089591110C940A27803219F08950A4
:1048C0008550C8F70895FB01DC0105900D9200208A
:1048D000E1F70895FC0105900020E9F78095909597
:1048E0008E0F9F1F08954FEF58E00E94782408957F
:1048F000FA01A191B081009719F41097E1F0CD0170
:10490000DC01CD010D90002011F4C00113C0FB01AA
:104910002191222319F02015D9F7F3CFFB01219122
:10492000201519F41E92119606C02223C1F70D908E
:104930000020A1F7D001FA01A193B0830895BB270D
:104940004A3031F4992322F4BDE2909581959F4F2E
:104950000C94C824592F482F372F262F660F771F06
:10496000881F991F660F771F881F991F620F731F7B
:10497000841F951F660F771F881F991F08957AE07F
:10498000979F902D879F802D910D11240895BB270F
:10499000FB015527AA27880F991FAA1FA41710F0FB
:1049A000A41B83955051B9F7A05DAA3308F0A95D07
:1049B000A193009779F7B111B1931192CB010C94A7
:1049C0002327AEE0B0E0E7EEF4E20C941B280D895B
:1049D0001E898EE08C831A8309838FEF9FE79E8365
:1049E0008D83AE01475E5F4F6F89788DCE01019652
:1049F0000E9430252F813885020F131FF801108285
:104A00002E96E4E00C943728AEE0B0E0EAE0F5E260
:104A10000C941B288C01FA018EE08C831A83098385
:104A200077FF02C060E070E8615071097E836D839A
:104A3000A901BF01CE0101960E9430254D815E8102
:104A400057FD0AC02F813885421753070CF49A018D
:104A5000020F131FF80110822E96E4E00C94372801
:104A6000ABE0B0E0E6E3F5E20C940D287C013B01FD
:104A70008A01FC0117821682838181FFC8C1CE01A1
:104A800001965C01F7019381F30193FD859193FFFA
:104A900081913F01882309F453C1853239F493FD94
:104AA000859193FF81913F01853229F4B70190E010
:104AB0000E943327E7CF912C212C312CFFE1F315F5
:104AC00038F08B3211F190F4803209F1833229F100
:104AD00037FC3CC020ED280F2A3050F536FE20C0B0
:104AE0008AE0989E200D1124922E06C08D3291F0FE
:104AF000803371F7689430F8F30193FD859193FF4B
:104B000081913F018111DACF21C0689431F8689416
:104B100032F8F2CF689433F8EFCF689434F8ECCFE2
:104B2000EAE02E9E200D1124222E689435F8E4CF61
:104B30008E3229F436FC04C1689436F8DDCF8C3609
:104B400019F4689437F8D8CF8836B1F2982F9F7D42
:104B500095549330E0F08336A1F18337C1F183356A
:104B600009F063C02801F2E04F0E511CF801C0802B
:104B7000D180692D70E036FC02C06FEF7FEFC60177
:104B80000E940D274C01689437F882010AC00C5F1F
:104B90001F4FFFE3F98388248394912C6501E894E7
:104BA00037F833FE2DC0522C8114910471F5552035
:104BB00009F468CFB70180E290E00E9433275A944D
:104BC000F6CFF801808189830E5F1F4FE4CF280163
:104BD000F2E04F0E511CF801C080D180692D70E0C9
:104BE00036FC02C06FEF7FEFC6010E9418274C0110
:104BF0008201D5CFB70180E290E00E9433272A944A
:104C00002814190409F0B0F7CECFF60137FC8591CE
:104C100037FE81916F01B70190E00E943327511058
:104C20005A94F1E08F1A9108BFCF843619F0893673
:104C300009F077C0F80137FE6BC060817181828115
:104C400093810C5F1F4FF32DFF763F2E97FF09C016
:104C500090958095709561957F4F8F4F9F4F689489
:104C600037F82AE030E0A5010E946327C82ECA1851
:104C70008C2C432C36FE0CC0E89440F8C91440F448
:104C800034FE05C032FC03C0F32DFE7E4F2E892C6E
:104C900044FE95C0FE01EC0DF11D8081803309F0CA
:104CA00087C0242D297E422E842D8870582E43FCE7
:104CB00095C040FE8FC09C2C821418F42C0C922CB2
:104CC000981844FE91C0B70180E390E00E9433271A
:104CD00042FE09C088E790E041FE02C088E590E00E
:104CE000B7010E943327C91408F48AC0CA94D12C92
:104CF0009FEFC91AD90ACA0CDB1CF60182916F0119
:104D0000B70190E00E943327AC14BD04B1F74FCF38
:104D100060817181072E000C880B990B0E5F1F4F6D
:104D200092CFD32CE894D4F82AE030E0853739F1DB
:104D3000232D297FD22E8F3601F148F48835A9F032
:104D4000F701868197812B96E2E10C942928803720
:104D500049F08837A9F7D4FE02C06894D2F820E160
:104D600030E00DC06894D4F8F6CF34FE03C0822F33
:104D70008660D82E20E132E002C028E030E0F80161
:104D8000D7FE0FC060817181828193810C5F1F4FBC
:104D9000A5010E946327C82ECA183D2CE89437F855
:104DA00067CF6081718190E080E00E5F1F4FF0CF90
:104DB00042FC02C0839478CF8394839475CF842D72
:104DC000867809F471CFF6CFB70180E290E00E94B7
:104DD000332783948214C0F3512C73CF522C58186C
:104DE000821408F46ECFF8CF842D867809F47BCF37
:104DF0008BE241FE80E247FC8DE2B70190E071CF8B
:104E0000B70180E390E00E9433279A946CCF8FEF34
:104E10009FEF99CF992788270895FC01059061504D
:104E200070400110D8F7809590958E0F9F1F0895C0
:104E3000FC016150704001900110D8F78095909569
:104E40008E0F9F1F0895DC01FC01672F719177235E
:104E5000E1F7329704C07C916D9370836291AE1735
:104E6000BF07C8F308950F931F93CF93DF93182FB5
:104E7000092FEB018B8181FD09C01FEF0FEF812FFF
:104E8000902FDF91CF911F910F91089582FF14C051
:104E90002E813F818C819D81281739073CF4E88160
:104EA000F981CF0101969983888310838E819F8138
:104EB00001969F838E83E3CFE885F985812F09953D
:104EC000892BA1F3DACFFA01AA27283051F120313A
:104ED00081F1E8946F936E7F6E5F7F4F8F4F9F4F8E
:104EE000AF4FB1E03ED0B4E03CD0670F781F891FD0
:104EF0009A1FA11D680F791F8A1F911DA11D6A0F9E
:104F0000711D811D911DA11D20D009F468943F9150
:104F10002AE0269F11243019305D3193DEF6CF014F
:104F20000895462F4770405D4193B3E00FD0C9F715
:104F3000F6CF462F4F70405D4A3318F0495D31FD82
:104F40004052419302D0A9F7EACFB4E0A6959795D5
:104F5000879577956795BA95C9F7009761057105AB
:104F600008959B01AC010A2E0694579547953795F5
:104F70002795BA95C9F7620F731F841F951FA01D4F
:104F80000895A1E21A2EAA1BBB1BFD010DC0AA1F8A
:104F9000BB1FEE1FFF1FA217B307E407F50720F0A2
:104FA000A21BB30BE40BF50B661F771F881F991F1D
:104FB0001A9469F760957095809590959B01AC0166
:104FC000BD01CF010895052E97FB1EF400940E94A9
:104FD000FA2757FD07D00E94C12707FC03D04EF4E3
:104FE0000C94FA2750954095309521953F4F4F4F9F
:104FF0005F4F089590958095709561957F4F8F4F85
:105000009F4F08950E944428A59F900DB49F900D36
:10501000A49F800D911D112408952F923F924F92CD
:105020005F926F927F928F929F92AF92BF92CF9238
:10503000DF92EF92FF920F931F93CF93DF93CDB741
:10504000DEB7CA1BDB0B0FB6F894DEBF0FBECDBFB9
:1050500009942A88398848885F846E847D848C848A
:105060009B84AA84B984C884DF80EE80FD800C8193
:105070001B81AA81B981CE0FD11D0FB6F894DEBF76
:105080000FBECDBFED010895A29FB001B39FC00137
:10509000A39F700D811D1124911DB29F700D811D64
:1050A0001124911D0895EE0FFF1F0590F491E02D3E
:1050B00009940F931F93CF93DF938230910510F4DF
:1050C00082E090E0E0910309F091040930E020E0F3
:1050D000B0E0A0E0309799F42115310509F44AC0F9
:1050E000281B390B24303105D8F58A819B81611545
:1050F000710589F1FB0193838283FE0111C0408118
:1051000051810281138148175907E0F04817590768
:1051100099F4109761F012960C93129713961C93C2
:105120003296CF01DF91CF911F910F910895009397
:10513000030910930409F4CF2115310551F04217EA
:10514000530738F0A901DB019A01BD01DF01F80125
:10515000C1CFEF01F9CF9093040980930309CDCF1C
:10516000FE01E20FF31F819391932250310939839D
:105170002883D7CF2091010930910209232B41F4D4
:1051800020911A0130911B013093020920930109EB
:1051900020911801309119012115310541F42DB7E5
:1051A0003EB740911C0150911D01241B350BE0912D
:1051B0000109F0910209E217F307A0F42E1B3F0B3F
:1051C0002817390778F0AC014E5F5F4F2417350779
:1051D00048F04E0F5F1F50930209409301098193DD
:1051E00091939FCFF0E0E0E09CCFCF93DF930097C7
:1051F000E9F0FC01329713821282A0910309B09169
:105200000409ED0130E020E01097A1F42081318104
:10521000820F931F20910109309102092817390745
:1052200009F061C0F0930209E0930109DF91CF9189
:105230000895EA01CE17DF07E8F54A815B819E01F8
:1052400041155105B1F7E901FB83EA834991599171
:10525000C40FD51FEC17FD0761F480819181029680
:10526000840F951FE90199838883828193819B83B1
:105270008A83F0E0E0E012968D919C91139700975D
:10528000B9F52D913C911197CD010296820F931F94
:1052900020910109309102092817390739F6309712
:1052A00051F51092040910920309B0930209A093DA
:1052B0000109BCCFD383C28340815181840F951FE4
:1052C000C817D90761F44E5F5F4F88819981480FF5
:1052D000591F518340838A819B8193838283211547
:1052E000310509F0B0CFF0930409E09303099ECF94
:1052F000FD01DC01C0CF13821282D7CFB0E0A0E065
:10530000E4E8F9E20C940F288C01009751F4CB01EA
:105310000E9459288C01C801CDB7DEB7E0E10C949A
:105320002B28FC01E60FF71F9C0122503109E217E0
:10533000F30708F49DC0D901CD91DC911197C617F0
:10534000D70798F0C530D10530F3CE010497861702
:10535000970708F3C61BD70B2297C193D1936D9380
:105360007C93CF010E94F528D6CF5B01AC1ABD0A11
:105370004C018C0E9D1EA0910309B0910409512C83
:10538000412CF12CE12C109731F58091010990917D
:1053900002098815990509F05CC04616570608F001
:1053A00058C08091180190911901009741F48DB770
:1053B0009EB740911C0150911D01841B950BE8176D
:1053C000F90708F055C0F0930209E0930109F901CB
:1053D00071836083A0CF8D919C91119712966C90F0
:1053E000129713967C901397A815B90559F56C017F
:1053F00042E0C40ED11CCA14DB0420F1AC014A19EE
:105400005B09DA011296159780F0628273825183EC
:105410004083D9016D937C93E114F10471F0D701BD
:105420001396FC93EE93129776CF22968C0F9D1FC6
:10543000F90191838083F301EFCFF0930409E093A6
:10544000030969CF4816590608F42C017D01D301E0
:105450009ACFCB010E9459287C01009749F0AE01F8
:10546000B8010E943B2AC8010E94F528870153CF4A
:1054700010E000E050CFFB01DC0102C001900D9272
:1054800041505040D8F70895DC0101C06D93415060
:105490005040E0F70895FB01DC0101900D920020DF
:1054A000E1F70895FB01DC014150504048F00190C4
:1054B0000D920020C9F701C01D9241505040E0F705
:1054C0000895FB0151915523A9F0BF01DC014D91D5
:1054D00045174111E1F759F4CD010190002049F041
:1054E0004D9140154111C9F3FB014111EFCF81E00E
:0A54F00090E001970895F894FFCFB3
:1054FA00FFFFFFFF00E10000000000007F96980018
:10550A00FFFFFFFFFFFFFFFF000005098000710694
:10551A00780682068B06970600C180810000006229
:10552A006C756562657272696573005F4A6F73684C
:10553A0000000000007306D4050106BF06320610FB
:10554A00062406000000006407DF0685077A07CBF9
:10555A00078907A707000000009E0B710BCD0B47B8
:10556A000B6A0B570B480B00000000C7099E0FCDB2
:10557A000B3009BC095F0F200F6B12AE124709B03E
:10558A0012D014280900000000910C2B4950442C19
:10559A00005B576946694573705D20002C434C4F88
:1055AA005345440D0A003E005265636F6E6E656393
:1055BA0074696E6720746F20576946692E2E2E0013
:1055CA004661696C656420746F20636F6E6E6563F3
:1055DA007420746F205769466900436F6E6E656365
:1055EA0074656420746F205769466900436F6E6E54
:1055FA00656374696E6720746F207365727665726D
:10560A002E2E2E00436F6E6E656374696F6E205383
:10561A0075636365737366756C2E00474554202F56
:10562A006170692F76322F6A7072696562652F66BA
:10563A00656564732F002F646174613F6C696D69DD
:10564A00743D3120485454502F312E31003E3E3E95
:10565A0020436C69656E742054696D656F7574209A
:10566A002100526573706F6E736520726563656998
:10567A00766564002276616C7565223A0056414C63
:10568A0055453A2000417474656D70742000206697
:10569A0061696C65642E205265747279696E672E31
:1056AA002E2E00416C6C20617474656D70747320C9
:1056BA006661696C656400696F2E61646166727502
:1056CA0069742E636F6D007B0A2276616C756522A0
:1056DA003A20000A7D00436F6E6E656374696E67D7
:1056EA002E2E2E00504F5354202F6170692F763280
:1056FA002F6A7072696562652F66656564732F002B
:10570A002F6461746120485454502F312E31004364
:10571A006F6E74656E742D4C656E6774683A2000FE
:10572A00436F6E6E656374696F6E206661696C653E
:10573A0064005345545550005769466920636869A7
:10574A0070206E6F742070726573656E7400417498
:10575A0074656D7074696E6720746F20636F6E6E06
:10576A0065637420746F2057504120535349443A5B
:10577A002000596F7527726520636F6E6E656374BA
:10578A00656420746F20746865206675636B696E42
:10579A0067206E6574776F726B00495020416464AC
:1057AA00726573733A20005369676E616C20737473
:1057BA0072656E677468202852535349293A00204B
:1057CA0064426D004C4F4F5000485454502052458B
:1057DA0051554553545300736F696C2D6D6F69733E
:1057EA00747572653100736F696C2D6D6F697374AE
:1057FA00757265320077617465722D6275636B65C7
:10580A00742D6C6576656C006175746F2D776174A3
:10581A0065720077617465722D6E6F77006D6F69BE
:10582A0073747572652D736574706F696E74004256
:10583A00616420696F5F6175746F5F776174657207
:10584A002072657475726E2076616C756520667259
:10585A006F6D20696F3A200042616420696F5F773B
:10586A00617465725F6E6F772072657475726E20EF
:10587A0076616C75652066726F6D20696F3A2000DB
:10588A0042616420696F5F6D6F6973747572655FD9
:10589A00736574706F696E742072657475726E20A8
:1058AA0076616C75652066726F6D20696F3A2000AB
:1058BA0053686F756C642077617465723F00417537
:1058CA00746F2057617465723A005761746572206B
:1058DA004E6F773A004D6F69737475726520536520
:1058EA0074706F696E743A0054696D652073696EDD
:1058FA006365206C6173742077617465723A200065
:10590A005761746572696E6720496E746572766153
:10591A006C3A20004175746F205761746572205487
:10592A007269676765726564004465636964656482
:10593A0020746F2077617465722C207761746572A8
:10594A002D6E6F773D005741544552494E47204EC0
:10595A004F572121007468696E6773206172652050
:10596A0067657474696E67207765742E2E2E0057EA
:10597A00617465722073746F7070696E672E00535C
:10598A00657474696E672077617465725F6E6F778C
:10599A0020746F2030206F6E20494F005761746564
:1059AA0072206C6576656C20686967682E2054756C
:1059BA00726E696E67206F666620646568756D69C8
:1059CA0064696669657200446568756D69646966CB
:1059DA006965725F6F666600504F5354202F747268
:1059EA0069676765722F002F776974682F6B65790D
:1059FA002F645A5930773457394B4F786C6A725F33
:105A0A0052545F39676D50705A515456794A633609
:105A1A005A4974314175726F59414B722048545436
:105A2A00502F312E3100486F73743A206D616B65C7
:105A3A00722E69667474742E636F6D00436F6E6E96
:105A4A00656374696F6E3A20636C6F7365000A52FE
:105A5A0065717565737420636F6D706C6574652EFE
:105A6A00000D0A4F4B0D0A000D0A4552524F520DB6
:105A7A000A000D0A4641494C0D0A000D0A53454ECB
:105A8A0044204F4B0D0A0020434F4E4E4543540DC0
:025A9A000A0000
:00000001FF
